:100000000C94E6010C9440340C9405020C94050207
:100010000C9405020C9405020C9405020C94050244
:100020000C9405020C9472340C9405020C94050295
:100030000C9405020C94A4320C9405020C94A43286
:100040000C9405020C94D7320C9405020C94050212
:100050000C9405020C9405020C9405020C94050204
:100060000C9405020C9405020C9405020C940502F4
:100070000C9405020C9405020C9405020C940502E4
:100080000C94E1320C9405020C9405020C940502C8
:100090000C9406200C9405020C9405020C940502A5
:1000A0000C9405020C9405020C9405020C940502B4
:1000B0000C9405020C9405020C9405020C940502A4
:1000C0000C9405020C9405020C94050275237B2305
:1000D0007E238123842387238D238A2390239323C4
:1000E00096239C239F23A223A5239923722378235D
:1000F0004661696C656420746F206C6F6164206D6B
:100100007920414443206472697665720D0A004388
:10011000726561746520446F6E650D0A00537461E9
:100120007274696E672075702E2E2E0D0A0052545F
:100130002D4C696E6B204552524F523A20637265C6
:100140006174696E67207478207369676E616C20D2
:100150006661696C65640D0A0052542D4C696E6BC2
:10016000204552524F523A206372656174696E673E
:10017000207278207369676E616C206661696C65B6
:10018000640D0A00434332343230204552524F52FC
:100190003A202052656C65617365206F6620736537
:1001A0006D6170686F7265206661696C65640D0AC7
:1001B00000434332343230204552524F523A2020CD
:1001C00041636365737320746F2073656D6170683C
:1001D0006F7265206661696C65640D0A00554E4B4F
:1001E0004F574E004661696C656420746F206372DE
:1001F000656174652053656D6170686F7265004656
:1002000061696C656420746F206372656174652038
:100210005369676E616C004B65726E656C20667524
:100220006E6374696F6E206E6F7420696D706C659B
:100230006D656E746564004465766963652044721B
:1002400069766572204572726F72005761746368D7
:10025000646F6720526573746172740054696D65D0
:1002600072204F766572666C6F7700556E68616EAE
:10027000646C656420496E74657272757074205682
:100280006563746F72004C6F7720566F6C74616792
:1002900065004578747261205461736B20737461DA
:1002A000727465642C206973206E726B5F6366677D
:1002B0002E68206F6B3F0049646C65206F72204B85
:1002C00065726E656C20537461636B204F76657246
:1002D000666C6F7700556E65787065637465642031
:1002E00052657374617274004475706C69636174F3
:1002F0006564205461736B204944005363686564EE
:10030000756C6572204D69737365642057616B6508
:100310007570005461736B20526573657276652049
:1003200056696F6C617465640052657365727665B9
:10033000204572726F7220696E2053636865647520
:100340006C657200496E76616C69642053746163F8
:100350006B20506F696E746572005461736B20532B
:100360007461636B204F766572666C6F77005374AF
:1003700061636B20776173206E6F742064656669BA
:100380006E6564206173206C6172676520656E6FB5
:100390007567682100293A20002A4E524B204552A9
:1003A000524F5228000D0A535441434B2044554D9F
:1003B000500D0A0045464765666700202B2D2E30FC
:1003C00031323334353637383968000011241FBED6
:1003D000CFEFD1E2DEBFCDBF13E0A0E0B2E0E0E7B7
:1003E000F4E700E00BBF02C007900D92A432B10702
:1003F000D9F71DE0A4E2B3E001C01D92AE30B10711
:10040000E1F70E94BC040C94363A0C941333CF935A
:10041000DF93EC01409126035091270384E790E09D
:10042000489FD001499FB00D589FB00D1124A15D88
:10043000B84F20E030E0772767FD709507C0FE01D8
:10044000E20FF31F80818D932F5F3F4F26173707F1
:10045000B4F3FA01E85CFC4F81E08083CA010196A5
:100460009093270380932603069721F41092270385
:1004700010922603DF91CF9108958EE390E161E021
:100480000E9476308F3F21F480EF90E00E94F31FAE
:10049000089588EF92E0909300048093FF0381EB2E
:1004A00096E09093FC038093FB0382EB94E090939F
:1004B000FE038093FD0382E08093020481E0809339
:1004C0000104809303048093040481E090E0A0E0A1
:1004D000B0E08093050490930604A0930704B093C2
:1004E00008041092090410920A0410920B0410924E
:1004F0000C0410920D0410920E0410920F0410922E
:10050000100480E091EEA5EFB5E080931104909384
:100510001204A0931304B0931404109215041092C3
:1005200016041092170410921804109219041092D5
:100530001A0410921B0410921C048AEF93E00E948C
:10054000342B8FE091E00E94F31F08950F931F93C7
:100550002091240330912503F901E85CFC4F808150
:10056000813099F504E710E0209FC001219F900D94
:10057000309F900D1124DC01AE5CB84FFD0101905D
:100580000020E9F7EA1BED5F815D984F6E2F42E096
:100590000E9426092091240330912503F901E85C8B
:1005A000FC4F1082209FF001219FF00D309FF00D35
:1005B0001124E15DF84F80E092E080832F5F3F4F90
:1005C000309325032093240306C081E092E06AE083
:1005D00042E00E942609809124039091250306970A
:1005E00021F410922503109224031F910F91089576
:1005F0002F923F924F925F926F927F928F929F9233
:10060000AF92BF92CF92DF92EF92FF920F931F9320
:10061000DF93CF9300D00F92CDB7DEB70E9442296F
:1006200000D000D0EDB7FEB7319628E032E0ADB78C
:10063000BEB712963C932E931197828313820E9429
:100640003C3887E192E0EDB7FEB79283818381E089
:1006500090E0948383830E943C380F900F900F901A
:100660000F9083E090E00E943D1F82E00E940C0604
:100670008EE00E94210980E064E041E00E94350C98
:1006800080E066E041E00E94350C81E062E041E0FC
:100690000E94350C8DE394E064E70E946B050E9494
:1006A000CE0502C00E94F82A0E9401058823D1F3DA
:1006B0006EEB662E66E0762E1E010894211C311C1E
:1006C00058E7452E52E0552E43E9842E42E0942E01
:1006D0003DE9A32E32E0B32E82E00E943805882344
:1006E00009F0A0C087EF99E00E94082E8091F709D9
:1006F0009091F809A091F909B091FA092091340478
:10070000309135044091360450913704821B930B8D
:10071000A40BB50B0697A105B10508F47DC08DB7F4
:100720009EB708970FB6F8949EBF0FBE8DBFEDB76A
:10073000FEB73196ADB7BEB712967C926E92119706
:1007400084E292E0938382838091280384831582DC
:1007500080912903868317820E944E38182F0F90AC
:100760000F90EDB7FEB731968FE292E0ADB7BEB70E
:1007700012969C938E931197ABEBB6E0B383A28352
:10078000812F992787FD9095958384830E943C381B
:100790001C5F0F900F900F900F908EE692E0EDB7D8
:1007A000FEB7928381830E943C384091260350918A
:1007B0002703E4E7F0E04E9FD0014F9FB00D5E9F0E
:1007C000B00D1124A15DB84F20E030E00F900F90E4
:1007D000612F772767FD709507C0F901E554F94F40
:1007E00080818D932F5F3F4F26173707B4F3FA01AF
:1007F000E85CFC4F81E08083CA0101969093270357
:1008000080932603069721F4109227031092260363
:1008100084E394E00E94082E0E94A60281E090E00A
:100820000E94091F0E944F05882309F4A2C080E09E
:1008300090E00E943D1FCE010396B101AE014E5FD4
:100840005F4F0E9409057C0100D000D000D0EDB7B9
:10085000FEB73196ADB7BEB712965C924E92119725
:100860008A81992787FD9095938382838B8199272D
:1008700087FD9095958384830E943C380A81EDB76B
:10088000FEB736960FB6F894FEBF0FBEEDBF07FD5C
:100890000F5F0595C701019626E0C22ED12CCE0C24
:1008A000DF1C002371F50E949337182F00D000D071
:1008B000EDB7FEB73196ADB7BEB712969C928E9249
:1008C0001197828393830E943C38109328030F90E2
:1008D0000F900F900F90C6010E949337182F00D0F1
:1008E00000D0EDB7FEB73196ADB7BEB71296BC9249
:1008F000AE921197828393830E943C381093290310
:1009000034C00E949337F82E00D000D0EDB7FEB768
:100910003196ADB7BEB712969C928E921197828394
:1009200093830E943C38112707FD1095F801E65D7E
:10093000FC4FF0820F900F900F900F90C6010E9415
:100940009337F82E00D000D0EDB7FEB73196ADB793
:10095000BEB71296BC92AE921197828393830E9487
:100960003C38035D1C4FF801F0820F900F900F9000
:100970000F900E94A30BB0CE0E94B41B87E090E0C2
:100980000E94AC1F8DE191E00E94F31F0E948A2219
:1009900080E090E00E94231F81E090E00E94231FEE
:1009A00082E090E00E94231F83E090E00E94231FDA
:1009B00060E070E080E090E020E030E040E050E077
:1009C0000E94AF2C0E943D020E9479050E944902BC
:1009D0000E942D2280E090E00895809149038130AB
:1009E00011F08FEF08958091C00B08958091490315
:1009F000813011F08FEF08958091640B08958FEF8F
:100A0000089580914903813011F08FEF089581E0BE
:100A10000895CF93DF93FC01DB01EA018091BA06D0
:100A2000882331F410821C92188220E030E00DC03F
:100A300080912704808380912C048C938091B10451
:100A400088832091290430912A04C901DF91CF9134
:100A5000089520918B0B30918C0BC90108958091E2
:100A6000CF0308958091E70908951092BA0608957A
:100A7000282F813219F480913C0408958091CA0393
:100A80009091CB03A091CC03B091CD0304C0B69557
:100A9000A795979587952A95D2F7817008958091AB
:100AA000BA0608959093480380934703089590935E
:100AB000E9098093E80908959093B9068093B806F0
:100AC00008959093D2038093D10308959093EC09F5
:100AD0008093EB090895662351F0009741F09093BD
:100AE0002A04809329046093280481E008958FEFFD
:100AF00008950F931F9389E699E09093D90380930B
:100B0000D80303ED13E0C8016AE473E040E850E065
:100B10000E94373584E18093DB0381E08093DA0320
:100B20008093DC038093DD031092DE031092DF03D9
:100B30001092E0031092E1038BE49CE1A6E8B0E0A0
:100B40008093E2039093E303A093E403B093E5035F
:100B50001092E6031092E7031092E8031092E90363
:100B60001092EA031092EB031092EC031092ED0343
:100B70001092EE031092EF031092F0031092F10323
:100B80001092F2031092F3031092F4031092F50303
:100B9000C8010E94342B1F910F9108958091EA099A
:100BA000823081F48091F60380FF07C08091900B22
:100BB00090E08F70907005972CF081E060E044E049
:100BC0000E94350C0E94F80D82E08093490308953D
:100BD0000F931F93CF93DF93062F8093D003882327
:100BE000B1F01FE1CFE1D0E0C81BD1090BC080E01C
:100BF000612F402F0E94350C81E0612F402F0E9411
:100C0000350C1150812F90E0C817D90784F3DF917C
:100C1000CF911F910F9108951F93182F0E940F25B8
:100C20008093640B8F3F19F489E591E008C00E941E
:100C30000F258093C00B8F3F69F48EE291E00E94F4
:100C4000F31FE091DF0CF091E00C8EE060850E94D4
:100C5000DD237DC010922A041092290410922804EA
:100C60000E94BA3110922D041092F30A10927E0B5A
:100C700010927D0B1092660B1092650B81E094E050
:100C800090937A0B8093790B1092CF031093EA091B
:100C90001092D00310923C041092B9061092B8063C
:100CA0001092D2031092D1031092EC091092EB092A
:100CB0001092E9091092E809109248031092470334
:100CC00084E68093460380E49FE1909345038093FC
:100CD000440380EA9FE090934303809342038AE0B9
:100CE0008093400380E899E190933F0380933E0313
:100CF000E0E9FBE011928BE0E03AF807D9F71092B7
:100D0000B2061092B3061092B4061092B506109275
:100D1000F6031092F7031092F8031092F903109261
:100D2000BA061092CA031092CB031092CC03109211
:100D3000CD030E94F50C20913E0330913F0384E2E5
:100D400094E06091400340E254E20E94891A1F91AE
:100D500008950E94F01508951F93CF93DF93182FE5
:100D60008091CF03882309F482C0E091D103F091F0
:100D7000D203309711F0812F0995C12FD0E0FE01E9
:100D8000EE0FFF1FEC0FFD1FEC50F54F818192819C
:100D90009093F1098093F00980818093EF09E091AD
:100DA000F009F091F1098091790B90917A0B908381
:100DB000E091F009F091F1098091790B90917A0B13
:100DC0008183E091F009F091F1098091F30A828327
:100DD0008091EF09833011F010E008C0E091F00934
:100DE000F091F10982818068828311E060916F0B3C
:100DF0007091700B40914203509143038DEE99E046
:100E00000E94AF1721E030E040E050E00C2E04C01B
:100E1000220F331F441F551F0A94D2F72095309597
:100E2000409550958091CA039091CB03A091CC033B
:100E3000B091CD0382239323A423B5238093CA03C7
:100E40009093CB03A093CC03B093CD032091D00318
:100E500080E290E0821B9109C817D90714F0109224
:100E60003C04112321F48091C00B0E949526DF9150
:100E7000CF911F9108950F931F93DF93CF9300D0CD
:100E8000CDB7DEB7082F84E294E0609140030E9462
:100E90004C1A0E94B0150E94A13290E09A83898377
:100EA00089819A8104969A8389830BC00E94A1321A
:100EB00029813A8190E02817390718F40E94981583
:100EC00054C00E947912882389F30E94A13290E0D5
:100ED0009A8389830E94A13290E09A8389838981D1
:100EE0009A8105969A83898308C00E94A13229813C
:100EF0003A8190E02817390728F00E945513182FDF
:100F0000882399F30E949815113079F51093BA0649
:100F10000093B104E0912904F0912A04908180E0CB
:100F2000218130E0282B392B8091790B90917A0B1D
:100F30002817390721F030937A0B2093790BE09131
:100F4000B806F091B906309711F0802F0995E0911D
:100F50002904F0912A04828187FD05C08091640BE9
:100F60000E94952602C01092BA060F900F90CF9162
:100F7000DF911F910F9108951F93FC01162F742F7D
:100F8000652F842F8F7121E030E040E050E004C0F5
:100F9000220F331F441F551F8A95D2F78091F60305
:100FA0009091F703A091F803B091F9032823392316
:100FB0004A235B23211531054105510511F080E0DD
:100FC00012C0F093590BE093580B1093570B70938A
:100FD0002E0460932F04872F962F60E00E94080D47
:100FE00081E08093E7091F910895BF92CF92DF922D
:100FF000EF92FF920F931F93DF93CF9300D0CDB763
:10100000DEB7CC24DD24EE24BB24BA94E09129047D
:10101000F0912A04B082E0912904F0912A04B1826F
:1010200084E294E0609140030E944C1A0E94B01543
:101030001092CF038AEF0E943B3210E01EC00E9444
:10104000A1321817D1F00E94A132182F0894C11CA8
:10105000D11C21E1C21627E2D20678F01092F30AE1
:10106000E39485E08E1518F0CC24DD240BC00E949B
:10107000D534CC24DD24EE2405C00E947912F82E4C
:101080008823E9F20E94BE310E9403329A83898349
:101090000E94A132082F10E00C5F1F4FFF2039F48F
:1010A0000BC00E94A13290E00817190728F00E9497
:1010B0005513F82E8823A9F30E94981521E0F21603
:1010C00009F0A4CF8091270418160CF09FCFF0925E
:1010D000BA06E0912904F0912A04808190E090936F
:1010E0007A0B8093790B8091790B90917A0B982FE2
:1010F000882790937A0B8093790B2091790B30910C
:101100007A0B818190E0822B932B90937A0B8093C2
:10111000790BDF01129612811F778091F30A8117F4
:1011200030F08F3608F472CF1A3008F06FCF80910C
:10113000790B90917A0B8F718093B1048C9187FD1C
:1011400018C02091B1048091B2069091B306A0918D
:10115000B406B091B50604C0B695A7959795879546
:101160002A95D2F780FF05C08091640B0E949526D6
:1011700002C01092BA068091790B90917A0B8F7110
:101180008093B1048091790B90917A0B01979093A1
:101190008C0B80938B0B10922D041093F30A81E03B
:1011A0008093CF0380917D0B90917E0B0E94460D22
:1011B0008091790B90917A0B8050944030F480911B
:1011C000790B90917A0B029718F48EEF93E005C09B
:1011D0008091790B90917A0B029790937E0B80937C
:1011E0007D0B80917D0B90917E0B60E00E94080D3D
:1011F0000E94F80D0E9416320E942D3287E00E9454
:10120000213280E090E066E67CE60E94C6310E94D2
:101210002D320E9424320E94BE310E9403329093EC
:10122000700B80936F0B8091CF030F900F90CF9135
:10123000DF911F910F91FF90EF90DF90CF90BF90C3
:101240000895809340030E94761A08951F93CF93C8
:10125000DF93EC01162F413261F40E9483376091D5
:10126000D00370E00E94F3364FE1481B81E0809389
:101270003C04842F90E0FC01EE0FFF1FE80FF91FE4
:10128000EC50F54FD283C183108321E030E040E081
:1012900050E004C0220F331F441F551F8A95D2F718
:1012A0008091CA039091CB03A091CC03B091CD0360
:1012B000822B932BA42BB52B8093CA039093CB0343
:1012C000A093CC03B093CD0381E0DF91CF911F9128
:1012D00008952F923F924F925F926F927F928F92DA
:1012E0009F92AF92BF92CF92DF92EF92FF920F93B5
:1012F0001F93CF93DF93109249030E94F82A8091A5
:1013000049038823D1F381E0809349031092F609C1
:101310001092F50980E393E00E94082ECC24C39438
:10132000212CE4E03E2E71E0872E912CA12CB12CD3
:1013300067E5462E6BE0562E50E2652E712C0E941A
:1013400003329093700B80936F0B80E393E00E94C5
:10135000082E8091790B90917A0B9093F6098093E7
:10136000F5098150944021F41092F6091092F50984
:101370008091790B90917A0B90938C0B80938B0BCF
:101380008091790B90917A0B8050944000F11092EB
:101390007A0B1092790B8091650B9091660B0196F8
:1013A0009093660B8093650BE0914703F09148039F
:1013B000309729F08091650B9091660B09950E94FA
:1013C000F80D8091EA09823011F4C092CF03E091C8
:1013D000E809F091E909309729F08091790B909113
:1013E0007A0B09958091EA09882381F42091790B81
:1013F00030917A0B80917D0B90917E0B019628178E
:10140000390721F40E94F5078823E1F38091790BD5
:1014100090917A0B0E947B0D813059F4E091EB0999
:10142000F091EC09309729F08091790B90917A0B2B
:1014300009958091790B90917A0B0E94000EEC0136
:101440008091790B90917A0B0E94D70D009741F013
:10145000209709F409C18C179D0708F405C109C03C
:10146000209739F48091790B90917A0BE101C81B98
:10147000D90B8091790B90917A0B4FE1D42ED82221
:101480008091EA09823099F48091790B90917A0BDE
:10149000892B09F0EBC08091F30A8F5F8093F30AE8
:1014A00087FFE4C01092F30AE1C010922D042D2DA5
:1014B00030E0850174010D2C04C0EE0CFF1C001FF0
:1014C000111F0A94D2F780912D04882309F045C09A
:1014D0008091F6039091F703A091F803B091F9037E
:1014E0008E219F21A023B1230097A105B105A9F169
:1014F0008091CA039091CB03A091CC03B091CD030E
:101500008E219F21A023B1230097A105B10519F5D4
:1015100050922104409220048091590B806880935E
:10152000590B53E050931F048091D003A301481B33
:101530005109421753074CF480913C04882359F415
:101540008DE194E063E041E204C08DE194E063E06A
:101550004D2D0E942609C0922D042091790B3091C7
:101560007A0B80917D0B90917E0B2817390709F437
:1015700048C08091F6039091F703A091F803B091D1
:10158000F9032091CA033091CB034091CC035091D1
:10159000CD0382239323A423B5238E219F21A0234F
:1015A000B1230097A105B10521F08D2D0E94AC0655
:1015B00028C08091B2069091B306A091B406B09174
:1015C000B5068E219F21A023B1230097A105B10567
:1015D00041F08091BA06882321F48D2D0E943B07AB
:1015E00010C02091790B30917A0B80912E0490914C
:1015F0002F042817390729F481E20E94AC061092C3
:10160000E7092091790B30917A0B80917D0B9091B5
:101610007E0B2817390791F48091EA09823071F026
:101620008091790B90917A0B019690937A0B80932D
:10163000790B85E090E00E94662A81CE8091790B3B
:1016400090917A0B8C0F9D1F90937A0B8093790B5E
:1016500080E090E00E94231FCE010E94C62A80E015
:1016600090E00E943D1F6BCEEC0103CFDD2009F41A
:101670001CCF1DCF8F929F92AF92BF92CF92DF92DD
:10168000EF92FF920F931F93DF93CF93CDB7DEB707
:1016900028970FB6F894DEBF0FBECDBF8E010F5F47
:1016A0001F4FC8010E94082EC80109811A812B8191
:1016B0003C814D815E816F81788580903003909070
:1016C0003103A0903203B0903303C0903403D09024
:1016D0003503E0903603F09037030E94882B698130
:1016E0007A818B819C8120E03AEC4AE95BE30E949D
:1016F000C0369B01AC016D817E818F819885620F20
:10170000731F841F951F28EA3BE246E850E00E94C1
:1017100006378091F5099091F609280F391FC90104
:1017200028960FB6F894DEBF0FBECDBFCF91DF91E4
:101730001F910F91FF90EF90DF90CF90BF90AF90EF
:101740009F908F9008958091640B0E9492258091C4
:10175000C00B0E94922521E030E040E050E0CA0139
:10176000B9010090C00B04C0660F771F881F991F36
:101770000A94D2F70090640B04C0220F331F441F59
:10178000551F0A94D2F7622B732B842B952B0E9442
:10179000E32781E008958091640B0E949225809157
:1017A000BA06882379F461E070E080E090E0009070
:1017B000640B04C0660F771F881F991F0A94D2F725
:1017C0000E94E32781E008959F92AF92BF92CF924B
:1017D000DF92EF92FF920F931F93982E8091C00B90
:1017E0000E949225A1E0EA2EF12C012D112D092C49
:1017F00004C0EE0CFF1C001F111F0A94D2F7F1E089
:10180000AF2EB12CC12CD12C0DC0C601B50100905A
:10181000C00B04C0660F771F881F991F0A94D2F768
:101820000E94E32781E2981629F480913C048823E2
:1018300061F710C08091CA039091CB03A091CC03B3
:10184000B091CD038E219F21A023B1230097A10544
:10185000B105D9F681E01F910F91FF90EF90DF90D5
:10186000CF90BF90AF909F9008951F93142F403159
:1018700008F050C0603208F04DC0E62F21E030E0A3
:1018800040E050E0062E04C0220F331F441F551FB6
:101890000A94D2F78823A9F48091B2069091B306F6
:1018A000A091B406B091B506822B932BA42BB52B37
:1018B0008093B2069093B306A093B406B093B50696
:1018C00014C08091F6039091F703A091F803B091B2
:1018D000F903822B932BA42BB52B8093F6039093C3
:1018E000F703A093F803B093F903669570E0E0FD69
:1018F00006C0FB01E057F44F8081807F07C0FB01E9
:10190000E057F44F80818F701295107F812B808378
:1019100081E001C08FEF1F910895982F803210F061
:101920008FEF08958695E82FF0E090FD05C0E05711
:10193000F44F80818F700895E057F44F8081829535
:101940008F700895782F603210F08FEF0895E62F92
:1019500081E090E0062E02C0880F991F0A94E2F7FA
:101960009C01442737FD4095542F20953095409594
:1019700050957723A9F48091B2069091B306A09177
:10198000B406B091B50682239323A423B523809394
:10199000B2069093B306A093B406B093B50614C0F4
:1019A0008091F6039091F703A091F803B091F903A9
:1019B00082239323A423B5238093F6039093F70304
:1019C000A093F803B093F903669570E0E0FD06C0BC
:1019D000FB01E057F44F8081807F05C0FB01E05799
:1019E000F44F80818F708083089581E094E090931C
:1019F000720B8093710B9093740B8093730B909385
:101A0000760B8093750B9093780B8093770B0895EA
:101A10009C018091710B9091720B9F778150944043
:101A200018F080E090E022C08091730B9091740BCD
:101A30009F778150944018F081E090E017C080912A
:101A4000750B9091760B9F778150944018F082E04F
:101A500090E00CC08091770B9091780B9F7781502C
:101A6000944010F48FEF089583E090E0FC01EE0FB6
:101A7000FF1FEF58F44F31832083662311F481E078
:101A8000089530683183208381E008959C0180911E
:101A9000710B9091720B9F778217930719F4E0E016
:101AA000F0E020C08091730B9091740B9F778217A8
:101AB000930719F4E1E0F0E015C08091750B909167
:101AC000760B9F778217930719F4E2E0F0E00AC0E3
:101AD0008091770B9091780B9F778217930751F441
:101AE000E3E0F0E0EE0FFF1FEF58F44F81E094E0E9
:101AF000918380830895AC012091710B3091720B1A
:101B0000B9017F7768177907E9F02091730B30915D
:101B1000740BC9019F7784179507A1F02091750B6D
:101B20003091760BC9019F778417950759F0209162
:101B3000770B3091780BC9019F778417950711F0C7
:101B400080E008952150304880F56417750719F436
:101B5000E0E0F0E020C08091730B9091740B9F77D0
:101B60008417950719F4E1E0F0E015C08091750B3A
:101B70009091760B9F778417950719F4E2E0F0E0D7
:101B80000AC08091770B9091780B9F778417950707
:101B900061F4E3E0F0E0EE0FFF1FEF58F44F81E057
:101BA00094E09183808381E0089581E00895E1E7E6
:101BB000FBE041E054E0208131813F7764E0203058
:101BC000360748F4281B390B1216130624F4241781
:101BD00035070CF4A90132962BE0E937F20759F7E3
:101BE00064E04130560711F440E050E0CA01089526
:101BF000E0EAFBE011928BE0E03CF807D9F70895AA
:101C00000F931F93CF93DF938C01A0EABBE0C1E059
:101C1000D4E060E070E0862F8695E82FF0E060FD6C
:101C200005C0E057F44F80818F7005C0E057F44F36
:101C3000808182958F70882361F18150EC91882397
:101C400011F451E00EC040E052E0282F30E0215066
:101C5000304002C0550F4F5F842F90E082179307EA
:101C6000CCF32E2F30E045E0220F331F4A95E1F7E9
:101C7000260F371F0217130710F0E50FF2CFEC9372
:101C8000A901401B510B4C175D0718F4215034403B
:101C900008F0AE016F5F7F4F11966032710511F051
:101CA000EA01B9CF84E04130580711F440E050E038
:101CB000CA01DF91CF911F910F910895482F66239C
:101CC00011F431E00FC0382F20E070E06150704017
:101CD00004C0349F302D11242F5F822F90E086178F
:101CE0009707BCF3832F089520917F0B3091800BD1
:101CF000AC01421B530B50938A0B4093890B90937A
:101D0000800B80937F0B08958091890B90918A0BB3
:101D10000895E1E8FBE08FEF81939BE0E938F90754
:101D2000D9F780935C0B10927C0B1092800B109271
:101D30007F0B0895282F269525758575280F922FDE
:101D40009695969593732373920F892F82958F7032
:101D50009F70890F0895E1E8FBE020E08191982FC2
:101D6000969595758575980F892F869586958373B9
:101D70009373890F982F92959F708F70980F290FEA
:101D80008BE0E938F80751F7822F089580915C0BBA
:101D9000982F969595758575980F892F86958695B8
:101DA00083739373890F982F9F7082958F70890F1B
:101DB000089540917C0BE42FE695E695E695F0E0DA
:101DC000EF57F44F842F90E0809590958770907036
:101DD00021E030E002C0220F331F8A95E2F78081B4
:101DE000822B80834F5F40937C0B413410F0109224
:101DF0007C0B089540917C0BE42FE695E695E695E3
:101E0000F0E0EF57F44F242F30E020953095277005
:101E1000307081E090E002C0880F991F2A95E2F7A8
:101E200080952081822380834F5F40937C0B4134D7
:101E300010F010927C0B0895883010F080E0089527
:101E4000E82FF0E0E959F44F8081089540918E0B1E
:101E5000E42FE695E695E695F0E0A42FB0E0E45A8D
:101E6000F44FCD01809590958770907021E030E01F
:101E700002C0220F331F8A95E2F78081822B808374
:101E8000A959B44F1C924F5F40938E0B493010F00C
:101E900010928E0B089560918E0BE62FE695E695D5
:101EA000E695F0E0A62FB0E0E45AF44FAD0140957E
:101EB00050954770507021E030E002C0220F331F70
:101EC0004A95E2F72095908129232083A959B44FA0
:101ED0008C936F5F60938E0B693010F010928E0BB5
:101EE0000895EAE7F0E083E08083ACE7B0E080E4C7
:101EF0008C938081806880831092C20B8C91807E4D
:101F00008C939C918C91807E892B8C93089588EC86
:101F100090E00E947B31089580917A0080648093E4
:101F20007A0080917A0084FFFCCF88EC90E00E94D8
:101F30007B312091780030E040917900942F80E04F
:101F4000282B392BC9010895BF92CF92DF92EF92CF
:101F5000FF920F931F93DF93CF9300D0CDB7DEB7DF
:101F60000E94FD117C01009711F00E948E27159AA6
:101F7000DD249BE1B92E8BE5C82E8D2D806290E08B
:101F80009A8389834098BEBC0DB407FEFDCF89813A
:101F90009A819EBD0DB407FEFDCF89819A818EBDC9
:101FA0000DB407FEFDCF409A82E090E00E947B31A5
:101FB0004098CEBC0DB407FEFDCF1EBC0DB407FE8D
:101FC000FDCF8EB5182F00E01A8309831EBC0DB417
:101FD00007FEFDCF89819A812EB530E0282B392B61
:101FE0003A832983409A89819A8186FD04C0D394DB
:101FF0002FE1D21611F6E114F10419F0C7010E9485
:102000004126DD20B9F40E948C0F9A83898389814F
:102010009A818F3A910530F089819A818E5A904049
:102020009A83898389819A818A549140C0F48AE491
:1020300091E013C02D2D30E083E89FEFAC01249F89
:10204000C001259F900D349F900D1124885D9C4DFB
:102050006BE170E00E94F336CB019A83898329817A
:102060003A81C9010F900F90CF91DF911F910F918D
:10207000FF90EF90DF90CF90BF900895CF92DF92C6
:10208000EF92FF920F931F93CF93DF93382F7A0134
:10209000C22E823009F49FC0833030F4882371F05F
:1020A000813009F0F1C028C0843009F49EC084302A
:1020B00008F495C0853009F0E7C047C080E880BBD0
:1020C0008F9A83E080937A0080E480937C008091F3
:1020D0007A00806880937A001092C20B80917C0015
:1020E000807E80937C0090917C0080917C00807E3B
:1020F000892B80937C0070C08091C10B813009F4E2
:10210000C9C03093C10B70E060FF13C08F9810926C
:10211000C20B80917C00807E80937C0090917C003B
:1021200080917C00807E892B80937C0088EE93E0F8
:102130007EC0CB0186709070892B09F0ABC06770B0
:102140007070672B09F4A6C074C0822F8150823052
:1021500008F09EC09091C20B892F8150863018F4F0
:102160000E948C0F24C0992331F40E94A40FF2E046
:10217000CF1629F51FC0973059F501E014E0C0E0F3
:10218000D0E0DD240E948C0F8017910708F48C01A9
:10219000C817D90708F4EC018DE790E00E947B3165
:1021A000D394F0E4DF1671F7CE01801B910B22E08F
:1021B000C21629F4F7018083918381E00AC0F1E01F
:1021C000CF1631F49695879596958795F70180837C
:1021D00080E08F5F60C08F9A1092C10B2AC061307F
:1021E00009F058C08091C20B56C0613009F052C04E
:1021F000F7E02F1701F52093C20B80917C008F77B9
:1022000080937C0080917C00806480937C0080912E
:102210007C00807E80937C0090917C0080917C008B
:102220009360807E982B90937C0088EC90E00E94D5
:102230007B3181E030C027E02C1520F481E00E9442
:102240001A2328C0C092C20B81E0C81649F48091BD
:102250007C008F7780937C0080917C00806403C039
:1022600080917C00806C80937C0080917C00807EDB
:1022700080937C0090917C0080917C00807E892BF3
:102280008C2980937C00D1CF8CE060E00E94DD231C
:1022900080E001C08FEFDF91CF911F910F91FF90F0
:1022A000EF90DF90CF90089590E00B979C012B5911
:1022B0003E4B880F991F880F991F280F391FF894DC
:1022C000409888E18EBD0DB407FEFDCF3EBD0DB434
:1022D00007FEFDCF2EBD0DB407FEFDCF409A7894CA
:1022E0000895F89440981EBC0DB407FEFDCF8EB53E
:1022F000409A789486FFF5CF08958091D80B089581
:10230000DC01409889EC8EBD0DB407FEFDCF80E85E
:102310008EBD0DB407FEFDCF92E09150FD01E90F97
:10232000F11D80818EBD0DB407FEFDCF9923A9F765
:10233000409A40988BEC8EBD0DB407FEFDCF80E82F
:102340008EBD0DB407FEFDCF92E09150FD01E90F67
:10235000F11D82818EBD0DB407FEFDCF9923A9F733
:10236000409A8C918093D90B11968C911197809300
:10237000DA0B12968C9112978093DB0B13968C914B
:102380008093DC0B0895409889E18EBD0DB407FE63
:10239000FDCF83E08EBD0DB407FEFDCF86E08EBD80
:1023A0000DB407FEFDCF409A40988AE18EBD0DB472
:1023B00007FEFDCF8EE08EBD0DB407FEFDCF8EE093
:1023C0008EBD0DB407FEFDCF409A81E08093C90B0E
:1023D0000895409889E18EBD0DB407FEFDCF81E0E0
:1023E0008EBD0DB407FEFDCF84EC8EBD0DB407FE8F
:1023F000FDCF409A1092C90B08958091C70B909120
:10240000C80B08952091CA0B3091CB0B38603093E4
:10241000CB0B2093CA0B409881E18EBD0DB407FE13
:10242000FDCF3EBD0DB407FEFDCF2EBD0DB407FEA2
:10243000FDCF409A08952091CA0B3091CB0B377F86
:102440003093CB0B2093CA0B409881E18EBD0DB425
:1024500007FEFDCF3EBD0DB407FEFDCF2EBD0DB472
:1024600007FEFDCF409A089581E08093D70B20911D
:10247000CA0B3091CB0B20613093CB0B2093CA0B4E
:10248000409881E18EBD0DB407FEFDCF3EBD0DB479
:1024900007FEFDCF2EBD0DB407FEFDCF409A089577
:1024A0001092D70B2091CA0B3091CB0B2F7E30931B
:1024B000CB0B2093CA0B409881E18EBD0DB407FE73
:1024C000FDCF3EBD0DB407FEFDCF2EBD0DB407FE02
:1024D000FDCF409A089589B190E026E096958795C2
:1024E0002A95E1F7817008958CB1881F8827881F8D
:1024F000089589B190E036E0969587953A95E1F791
:10250000817008958091DD0B882321F08091DD0B8F
:102510001092DD0B0895409888E08EBD0DB407FE43
:10252000FDCF409A409888E08EBD0DB407FEFDCFE8
:10253000409A08958091C70B9091C80B0E948E27F6
:10254000409886E08EBD0DB407FEFDCF409A809185
:10255000C70B9091C80B0E94412608958091C70B2C
:102560009091C80B0E948E27409884E08EBD0DB4D8
:1025700007FEFDCF409A8091C70B9091C80B0E9437
:10258000412608958091C70B9091C80B0E948E2719
:10259000409886E08EBD0DB407FEFDCF409A40986E
:1025A00082E18EBD0DB407FEFDCF85E08EBD0DB47A
:1025B00007FEFDCF1EBC0DB407FEFDCF409A40982C
:1025C0008EE28EBD0DB407FEFDCF1EBC0DB407FE1E
:1025D000FDCF1EBC0DB407FEFDCF409A0E948B12AA
:1025E0008091C70B9091C80B0E944126089580915D
:1025F000C70B9091C80B0E948E27409886E08EBD35
:102600000DB407FEFDCF409A409882E18EBD0DB417
:1026100007FEFDCF85E08EBD0DB407FEFDCF88E03F
:102620008EBD0DB407FEFDCF409A40988EE28EBD60
:102630000DB407FEFDCF88E18EBD0DB407FEFDCFC2
:102640001EBC0DB407FEFDCF409A0E948B128091F4
:10265000C70B9091C80B0E94412608950F931F93BA
:10266000082F8091C70B9091C80B0E948E271127CD
:1026700007FD1095302F22272068409883E18EBDFA
:102680000DB407FEFDCF3EBD0DB407FEFDCF2EBD40
:102690000DB407FEFDCF409A8091C70B9091C80BF7
:1026A0000E9441261F910F910895DF93CF9300D090
:1026B00000D00F92CDB7DEB78091C70B9091C80BB9
:1026C0000E948E27679B25C21092D80B679B24C05F
:1026D000319922C040988FE78EBD0DB407FEFDCF23
:1026E0001EBC0DB407FEFDCF8EB5409A409888E021
:1026F0008EBD0DB407FEFDCF409A409888E08EBD98
:102700000DB407FEFDCF409A8091C70B9091C80B86
:102710000E9441268FEF04C240988FE78EBD0DB412
:1027200007FEFDCF1EBC0DB407FEFDCF4EB5409A8F
:102730004F7711F540988FE78EBD0DB407FEFDCFA2
:102740001EBC0DB407FEFDCF8EB5409A409888E0C0
:102750008EBD0DB407FEFDCF409A409888E08EBD37
:102760000DB407FEFDCF409A8091C70B9091C80B26
:102770000E9441268EEFD4C145308CF0E091CC0B05
:10278000F091CD0B242F332727FD30952B5030406F
:102790008481992787FD909582179307DCF54098EF
:1027A0008FE78EBD0DB407FEFDCF50E0242F3327F9
:1027B00027FD309505C01EBC0DB407FEFDCF5F5F41
:1027C000852F90E08217930714F43199F4CF409A43
:1027D00040988FE78EBD0DB407FEFDCF1EBC0DB433
:1027E00007FEFDCF8EB5409A409888E08EBD0DB4AF
:1027F00007FEFDCF409A409888E08EBD0DB407FEDD
:10280000FDCF409A8091C70B9091C80B0E94412642
:102810008DEF86C1E091CC0BF091CD0B4C504383F2
:1028200040988FE78EBD0DB407FEFDCFFE013296B6
:102830009F012E5F3F4F1EBC0DB407FEFDCF8EB52E
:102840008193E217F307B9F7409AE091CC0BF0912E
:10285000CD0B8A819B8155E0969587955A95E1F736
:102860008170878340988FE78EBD0DB407FEFDCF42
:102870001EBC0DB407FEFDCFE091CC0BF091CD0B4B
:102880008EB58083409A40988FE78EBD0DB407FEC9
:10289000FDCF80E007C01EBC0DB407FEFDCF8F5FEB
:1028A000843011F03199F7CF409A40988FE78EBD70
:1028B0000DB407FEFDCF20E030E01EBC0DB407FED6
:1028C000FDCFE091CC0BF091CD0B8EB5E20FF31F55
:1028D00081832F5F3F4F2230310579F7409A8A81FB
:1028E00083FF56C040988FE78EBD0DB407FEFDCF25
:1028F000E3ECFBE01EBC0DB407FEFDCF8EB581936B
:102900008BE0E73CF807B1F7409A409889E98EBD23
:102910000DB407FEFDCF80E88EBD0DB407FEFDCFE0
:1029200092E09150E92FF0E0ED53F44F80818EBD9D
:102930000DB407FEFDCF9923A1F7409A40988BE98B
:102940008EBD0DB407FEFDCF80E88EBD0DB407FE31
:10295000FDCF92E09150E92FF0E0EB53F44F8081EE
:102960008EBD0DB407FEFDCF9923A1F7409A409884
:102970008CE08EBD0DB407FEFDCF409A81E08093C0
:10298000D80BE091CC0BF091CD0B838184508383E5
:1029900040988FE78EBD0DB407FEFDCF40E010C01C
:1029A0001EBC0DB407FEFDCFE091CC0BF091CD0B1A
:1029B0008EB50580F681E02DE40FF11D80834F5F19
:1029C000E091CC0BF091CD0B242F30E0838199273F
:1029D00087FD9095281739071CF3409A40988FE798
:1029E0008EBD0DB407FEFDCF1EBC0DB407FEFDCF9E
:1029F0009EB5409A40988FE78EBD0DB407FEFDCF7F
:102A00009983FE0134969E012A5F3F4F1EBC0DB490
:102A100007FEFDCF8EB58193E217F307B9F7409A11
:102A2000E091CC0BF091CD0B8C81808750E040E0A1
:102A30000CC0E091CC0BF091CD0B0580F681E02D20
:102A4000E20FF31F8081580F4F5FE091CC0BF091A4
:102A5000CD0B242F30E08381992787FD909528178F
:102A600039073CF38981581711F140988FE78EBDE3
:102A70000DB407FEFDCF1EBC0DB407FEFDCF8EB515
:102A8000409A409888E08EBD0DB407FEFDCF409A75
:102A9000409888E08EBD0DB407FEFDCF409A80912E
:102AA000C70B9091C80B0E9441268CEF39C08D81D5
:102AB00087FF0DC08091DD0B8F5F8093DD0B8091D0
:102AC000C70B9091C80B0E94412681E029C0409815
:102AD0008FE78EBD0DB407FEFDCF1EBC0DB407FE03
:102AE000FDCF8EB5409A409888E08EBD0DB407FEAC
:102AF000FDCF409A409888E08EBD0DB407FEFDCF13
:102B0000409A8091C70B9091C80B0E9441268BEF91
:102B100007C08091C70B9091C80B0E94412680E0AE
:102B20000F900F900F900F900F90CF91DF9108951D
:102B30008091C70B9091C80B0E948E271092D40BE6
:102B4000409886E08EBD0DB407FEFDCF409A1092EE
:102B5000DD0B8091C70B9091C80B0E944126089510
:102B60008091C70B9091C80B0E948E2781E08093C3
:102B7000D40B409883E08EBD0DB407FEFDCF409A84
:102B8000409888E08EBD0DB407FEFDCF409A1092AC
:102B9000DD0B8091C70B9091C80B0E9441260895D0
:102BA0008091C70B9091C80B0E948E2781E0809383
:102BB000D40B409883E08EBD0DB407FEFDCF409A44
:102BC000409888E08EBD0DB407FEFDCF409A10926C
:102BD000DD0B8091C70B9091C80B0E944126089590
:102BE0001F93182F8091C70B9091C80B0E948E27BE
:102BF000212F30E02F713070206E306A409885E1CF
:102C00008EBD0DB407FEFDCF3EBD0DB407FEFDCF5A
:102C10002EBD0DB407FEFDCF409A8091C70B909159
:102C2000C80B0E9441261F910895FF920F931F9396
:102C3000DF93CF9300D000D0CDB7DEB78C01809169
:102C4000C70B9091C80B0E948E274091C90B44235B
:102C500039F040988DE08EBD0DB407FEFDCF409A4F
:102C60001A82D80112962C91622F772767FD7095F2
:102C700030E00CC0D8011396ED91FC911497E80F49
:102C8000F91F8A819081890F8A833F5F832F90E0AB
:102C9000861797077CF3245F29832C50442311F077
:102CA000205F29836799FECF4E99FCCFF894409816
:102CB00089E08EBD0DB407FEFDCF409A409889E0B3
:102CC0008EBD0DB407FEFDCF409A40988EE38EBDB9
:102CD0000DB407FEFDCF89818EBD0DB407FEFDCF7B
:102CE000409A81E498E89C838B838091D70B88235A
:102CF00021F081E698E89C838B83442329F08B8123
:102D00009C8188609C838B8340988EE38EBD0DB43C
:102D100007FEFDCFFE0133969E012B5F3F4F808162
:102D20008EBD0DB407FEFDCF3196E217F307B9F75C
:102D3000409A40988EE38EBD0DB407FEFDCF809182
:102D4000CE0B8EBD0DB407FEFDCF409A40988EE3AA
:102D50008EBD0DB407FEFDCF20E030E0F901E45355
:102D6000F44F84818EBD0DB407FEFDCF2F5F3F4F22
:102D70002230310599F7409A40988EE38EBD0DB40C
:102D800007FEFDCFF80198012E5F3F4F80818EBD79
:102D90000DB407FEFDCF3196E217F307B9F7409A5D
:102DA00040988EE38EBD0DB407FEFDCF20E030E0ED
:102DB000F901E453F44F86818EBD0DB407FEFDCFBB
:102DC0002F5F3F4F2230310599F7409A442399F005
:102DD00040988EE38EBD0DB407FEFDCFE9EDFBE01C
:102DE00080818EBD0DB407FEFDCF3196BBE0ED3D79
:102DF000FB07B1F7409A40988EE38EBD0DB407FEF5
:102E0000FDCF20E00DC0D8011396ED91FC911497F1
:102E1000E80FF91F80818EBD0DB407FEFDCF2F5F37
:102E2000822F90E08617970774F3409A40988EE3BC
:102E30008EBD0DB407FEFDCF8A818EBD0DB407FE99
:102E4000FDCF409AF80185818823B9F18091D40B98
:102E5000882339F4409883E08EBD0DB407FEFDCF82
:102E6000409A40981EBC0DB407FEFDCF8EB5409A27
:102E700081FFF7CF10E065E0F62E4098FEBC0DB460
:102E800007FEFDCF409A40981EBC0DB407FEFDCF53
:102E90000EB5409A1F5F153649F478948091C70BA0
:102EA0009091C80B0E94412610E04EC084E690E04D
:102EB0000E94582003FFE1CF07C0409884E08EBDF8
:102EC0000DB407FEFDCF409A78944E9BFECF4E99ED
:102ED000FECF8091D70B882391F084EA92E00E9484
:102EE0005820319B0EC040988FE78EBD0DB407FE71
:102EF000FDCF1EBC0DB407FEFDCF8EB5409A11E08C
:102F00000FC0409888E08EBD0DB407FEFDCF409AFB
:102F1000409888E08EBD0DB407FEFDCF409A10E0CA
:102F2000F894409886E08EBD0DB407FEFDCF409A20
:102F300078948091CE0B8F5F8093CE0B8091C70BDE
:102F40009091C80B0E944126812F0F900F900F90F7
:102F50000F90CF91DF911F910F91FF900895CF9225
:102F6000DF92EF92FF920F931F93DF93CF9300D0E6
:102F700000D0CDB7DEB77C018B016A018091C70B11
:102F80009091C80B0E948E270E94A132409888E041
:102F90008EBD0DB407FEFDCF409A409888E08EBDEF
:102FA0000DB407FEFDCF409A6799FECF4E99FCCF36
:102FB000F894409889E08EBD0DB407FEFDCF409A8D
:102FC000409889E08EBD0DB407FEFDCF409A1A826D
:102FD000D70112963C91432F552747FD509520E08D
:102FE0000CC0D7011396ED91FC911497E80FF91FCF
:102FF0008A819081890F8A832F5F822F90E08417C6
:1030000095077CF3932F945F998340988EE38EBD50
:103010000DB407FEFDCF9EBD0DB407FEFDCF409A57
:10302000F7018681882319F481E498E802C081E6DB
:1030300098E89C838B8340988EE38EBD0DB407FE89
:10304000FDCFFE0133969E012B5F3F4F80818EBDE9
:103050000DB407FEFDCF3196E217F307B9F7409A9A
:1030600040988EE38EBD0DB407FEFDCF8091CE0B50
:103070008EBD0DB407FEFDCF409A40988EE38EBD05
:103080000DB407FEFDCF20E030E0F901E453F44F2A
:1030900084818EBD0DB407FEFDCF2F5F3F4F2230E0
:1030A000310599F7409A40988EE38EBD0DB407FE26
:1030B000FDCFF70197012E5F3F4F80818EBD0DB48C
:1030C00007FEFDCF3196E217F307B9F7409A409813
:1030D0008EE38EBD0DB407FEFDCF20E030E0F90198
:1030E000E453F44F86818EBD0DB407FEFDCF2F5FF4
:1030F0003F4F2230310599F7409AC801B6010E942E
:10310000C631D70115968C918823B9F18091D40BE3
:10311000882339F4409883E08EBD0DB407FEFDCFBF
:10312000409A40981EBC0DB407FEFDCF8EB5409A64
:1031300081FFF7CF10E075E0D72E4098DEBC0DB4CC
:1031400007FEFDCF409A40981EBC0DB407FEFDCF90
:103150000EB5409A1F5F153649F478948091C70BDD
:103160009091C80B0E94412680E070C084E690E0F8
:103170000E94582003FFE1CF07C0409884E08EBD35
:103180000DB407FEFDCF409A40988EE38EBD0DB47E
:1031900007FEFDCFF7018281482F552747FD509547
:1031A00020E00DC0D7011396ED91FC911497E80F24
:1031B000F91F80818EBD0DB407FEFDCF2F5F822FDA
:1031C00090E08417950774F3409A40988EE38EBD83
:1031D0000DB407FEFDCF8A818EBD0DB407FEFDCF75
:1031E000409A4E9BFECFF8944E99FECF409888E0CF
:1031F0008EBD0DB407FEFDCF409A409888E08EBD8D
:103200000DB407FEFDCF409A409889E08EBD0DB405
:1032100007FEFDCF409A409889E08EBD0DB407FEB1
:10322000FDCF409A409886E08EBD0DB407FEFDCFDD
:10323000409A78948091CE0B8F5F8093CE0B8091D3
:10324000C70B9091C80B0E94412681E00F900F9010
:103250000F900F90CF91DF911F910F91FF90EF9002
:10326000DF90CF900895DF93CF9300D0CDB7DEB736
:103270009A8389839093D30B8093D20B84EF91E050
:103280000E947B3140988AEE8EBD0DB407FEFDCFC3
:1032900080E88EBD0DB407FEFDCFFE0131969E0184
:1032A0002D5F3F4F80818EBD0DB407FEFDCF31965F
:1032B000E217F307B9F7409A84EF91E00E947B315F
:1032C0000F900F90CF91DF9108954F925F926F9280
:1032D0007F928F929F92AF92BF92CF92DF92EF92A6
:1032E000FF920F931F93DF93CF9300D0CDB7DEB73C
:1032F000182F092F84E690E00E947B31212F302F78
:10330000C9016C0100E011E03E010894611C711CD0
:10331000B3E04B2E512C4C0E5D1EF601F080EE24D6
:10332000818190E08E299F299A83898384E690E0A9
:103330000E947B314098802F80688EBD0DB407FEBF
:10334000FDCFC80195958795807C8EBD0DB407FE95
:10335000FDCF43015301F50180818EBD0DB407FE01
:10336000FDCF0894A11CB11C4A145B04A1F7409A3C
:103370000894C11CD11C0E5F1F4FF1E000311F07E4
:1033800061F684E690E00E947B3120E131E040E488
:1033900051E01A8219824098842F80688EBD0DB446
:1033A00007FEFDCFCA0195958795807C8EBD0DB433
:1033B00007FEFDCFF30180818EBD0DB407FEFDCF6A
:1033C0003196EA15FB05B9F7409A4098822F80683C
:1033D0008EBD0DB407FEFDCFC90195958795807C04
:1033E0008EBD0DB407FEFDCFF30180818EBD0DB4FF
:1033F00007FEFDCF3196EA15FB05B9F7409A2E5F1F
:103400003F4F4E5F5F4F81E02E31380711F681E06C
:1034100090E09A83898340988EEC8EBD0DB407FEB0
:10342000FDCF80E88EBD0DB407FEFDCFF301808196
:103430008EBD0DB407FEFDCF31964E165F06B9F76F
:10344000409A40988EE98EBD0DB407FEFDCF80E80E
:103450008EBD0DB407FEFDCFF40180818EBD0DB48D
:1034600007FEFDCF0894811C911C48145904A1F754
:10347000409A0F900F90CF91DF911F910F91FF9085
:10348000EF90DF90CF90BF90AF909F908F907F9004
:103490006F905F904F9008951F93CF93DF93EC014F
:1034A000162F8091C70B9091C80B0E948E274098D1
:1034B00088E08EBD0DB407FEFDCF409A409888E0AD
:1034C0008EBD0DB407FEFDCF409A812F0E9454118E
:1034D000D093CD0BC093CC0B8091C70B9091C80BB0
:1034E0000E944126DF91CF911F9108951F93182FBD
:1034F0008091C70B9091C80B0E948E27812F0E944C
:1035000054118091C70B9091C80B0E9441261F91C6
:103510000895DF92EF92FF920F931F93DF93CF9363
:1035200000D0CDB7DEB78C01D62E5A8349837901FE
:1035300081E064E10E94C9259093C80B8093C70B7A
:10354000892B31F40E944229682F8FE00E94DD23ED
:103550008091C70B9091C80B0E948E278F3F21F45A
:1035600081EB91E00E94F31F159A88EE93E00E9490
:103570005820169881E090E00E945820169A84E620
:1035800090E00E945820F894409881E08EBD0DB4E0
:1035900007FEFDCF409A82EE92E09093CB0B809392
:1035A000CA0B409881E18EBD0DB407FEFDCF82E0CD
:1035B0008EBD0DB407FEFDCF82EE8EBD0DB407FEAD
:1035C000FDCF409A409882E18EBD0DB407FEFDCF3D
:1035D00085E08EBD0DB407FEFDCF1EBC0DB407FE09
:1035E000FDCF409A40988CE18EBD0DB407FEFDCF13
:1035F0001EBC0DB407FEFDCF8FE78EBD0DB407FED8
:10360000FDCF409A409889E18EBD0DB407FEFDCFF5
:1036100081E08EBD0DB407FEFDCF84EC8EBD0DB4F0
:1036200007FEFDCF409A409887E18EBD0DB407FE9E
:10363000FDCF8AE18EBD0DB407FEFDCF86E58EBDC0
:103640000DB407FEFDCF409A84EF91E00E947B31DC
:10365000409888EE8EBD0DB407FEFDCF80E88EBD8C
:103660000DB407FEFDCFFE0131969E012D5F3F4F49
:1036700080818EBD0DB407FEFDCF3196E217F307B2
:10368000B9F7409A84EF91E00E947B3178948D2DB8
:103690000E94541178941093CD0B0093CC0B898128
:1036A0009A819093D10B8093D00BF092D30BE09240
:1036B000D20B1092CE0B1092D40B0E9471118091FC
:1036C000C70B9091C80B0E9441268F3F39F484E8C4
:1036D00091E00E94F31F82E00E941A231092D70B00
:1036E0001092C90B1092D80B0F900F90CF91DF91D1
:1036F0001F910F91FF90EF90DF9008959091600CD3
:103700008091DE0B981771F0E92FF0E0E152F44F51
:10371000E081892F8F5F8093600C803871F4109264
:10372000600C0BC08091C80087FFFCCF8091C8005F
:103730008F778093C800E091CE008E2F0895882364
:1037400031F42091C000221F2227221F0BC081309C
:1037500011F020E007C020E09091600C8091DE0B1A
:10376000981321E0822F089585B7806185BF86E098
:1037700084B987E085B991E097B998B98CE38DB9A0
:103780008BE08AB98EE38EB988E781B980E482B98B
:1037900080E58CBD9DBD089585B7806185BF86E0BD
:1037A00084B987E085B981E087B988B98CE38DB9A0
:1037B0008BE08AB98EE38EB988E781B980E482B95B
:1037C0000895482F8F3F09F471C0282F30E02770EB
:1037D00030702230310589F12330310544F4211550
:1037E000310589F02130310509F060C01AC024305C
:1037F000310509F43EC0243031056CF12530310526
:1038000009F054C044C022B146954695469581E0E2
:1038100090E002C0880F991F4A95E2F7282B22B941
:1038200043C085B146954695469502C0220F331F89
:103830004A95E2F7822B85B937C028B1469546955F
:10384000469581E090E002C0880F991F4A95E2F703
:10385000282B28B929C02BB146954695469581E07D
:1038600090E002C0880F991F4A95E2F7282B2BB9E8
:103870001BC02EB146954695469581E090E002C06A
:10388000880F991F4A95E2F7282B2EB90DC021B356
:1038900046954695469581E090E002C0880F991FB5
:1038A0004A95E2F7282B21BB81E008958FEF089518
:1038B000482F8F3F09F478C0282F30E027703070F0
:1038C00022303105A1F12330310544F421153105B1
:1038D00089F02130310509F067C01BC02430310563
:1038E00009F443C0243031058CF12530310509F04D
:1038F0005BC04AC022B146954695469581E090E06E
:1039000002C0880F991F4A95E2F78095822382B9F9
:1039100049C095B146954695469502C0220F331F82
:103920004A95E2F7822F8095892385B93BC028B15B
:1039300046954695469581E090E002C0880F991F14
:103940004A95E2F78095822388B92CC02BB1469521
:103950004695469581E090E002C0880F991F4A95F0
:10396000E2F7809582238BB91DC02EB1469546950E
:10397000469581E090E002C0880F991F4A95E2F7D2
:10398000809582238EB90EC021B346954695469503
:1039900081E090E002C0880F991F4A95E2F7809578
:1039A000822381BB81E008958FEF0895282F8F3FF8
:1039B00069F190E08770907082309105A9F08330B2
:1039C00091052CF4009761F0019701F50BC084304C
:1039D000910571F0843091054CF00597B9F40AC057
:1039E00080B109C083B107C086B105C089B103C0E9
:1039F0008CB101C08FB190E026952695269502C026
:103A0000959587952A95E2F7817008958FEF08952F
:103A1000282F8F3F09F4F6C0482F50E047705070B0
:103A20004230510509F459C04330510544F4411561
:103A3000510591F04130510509F0E4C032C04430E5
:103A4000510509F494C0443051050CF46BC0453065
:103A5000510509F0D7C0B0C080B1269526952695AE
:103A6000322F90E0022E02C0959587950A94E2F7D6
:103A700080FD0BC022B181E090E002C0880F991F49
:103A80003A95E2F7282B22B9BBC022B181E090E041
:103A900002C0880F991F3A95E2F78095822382B978
:103AA000AFC083B126952695269590E0022E02C0E0
:103AB000959587950A94E2F7BA0102C0660F771FC1
:103AC0002A95E2F780FD03C085B1862B04C095B12D
:103AD000862F8095892385B993C086B12695269532
:103AE0002695322F90E0022E02C0959587950A9474
:103AF000E2F780FD0BC028B181E090E002C0880FA2
:103B0000991F3A95E2F7282B28B97AC028B181E0AD
:103B100090E002C0880F991F3A95E2F780958223C2
:103B200088B96EC089B1269526952695322F90E0EA
:103B3000022E02C0959587950A94E2F780FD0BC08E
:103B40002BB181E090E002C0880F991F3A95E2F70F
:103B5000282B2BB955C02BB181E090E002C0880F13
:103B6000991F3A95E2F7809582238BB949C08CB1B1
:103B7000269526952695322F90E0022E02C0959527
:103B800087950A94E2F780FD0BC02EB181E090E0AA
:103B900002C0880F991F3A95E2F7282B2EB930C042
:103BA0002EB181E090E002C0880F991F3A95E2F7AC
:103BB000809582238EB924C08FB1269526952695AF
:103BC000322F90E0022E02C0959587950A94E2F775
:103BD00080FD0BC021B381E090E002C0880F991FE7
:103BE0003A95E2F7282B21BB0BC021B381E090E08E
:103BF00002C0880F991F3A95E2F78095822381BB16
:103C000081E008958FEF0895482F8F3F09F4F5C0A4
:103C100090E0662309F081C0877090708230910532
:103C2000C9F1833091053CF4009781F08130910512
:103C300009F0E3C01EC08430910509F44BC0843004
:103C40009105C4F1059709F0D8C054C031B146952B
:103C50004695469581E090E002C0880F991F4A95ED
:103C6000E2F7282F2095232321B922B1822B82B994
:103C7000C2C024B146954695469502C0880F991F4B
:103C80004A95E2F7982F8095822384B985B1982BC5
:103C900095B9B1C037B146954695469581E090E01B
:103CA00002C0880F991F4A95E2F7282F20952323F9
:103CB00027B92FC03AB146954695469581E090E0E8
:103CC00002C0880F991F4A95E2F7282F20952323D9
:103CD0002AB91FC03DB146954695469581E090E0D2
:103CE00002C0880F991F4A95E2F7282F20952323B9
:103CF0002DB90FC030B346954695469581E090E0CA
:103D000002C0880F991F4A95E2F7282F2095232398
:103D100020BB25B1822B85B96EC09C012770307005
:103D20002230310589F12330310544F42115310564
:103D300089F02130310509F060C01AC02430310506
:103D400009F43EC0243031056CF12530310509F00D
:103D500054C044C021B146954695469581E090E017
:103D600002C0880F991F4A95E2F7282B21B943C05A
:103D700084B146954695469502C0220F331F4A9559
:103D8000E2F7822B84B937C027B146954695469510
:103D900081E090E002C0880F991F4A95E2F7282B36
:103DA00027B929C02AB146954695469581E090E00D
:103DB00002C0880F991F4A95E2F7282B2AB91BC029
:103DC0002DB146954695469581E090E002C0880F5A
:103DD000991F4A95E2F7282B2DB90DC020B34695BF
:103DE0004695469581E090E002C0880F991F4A955C
:103DF000E2F7282B20BB81E008958FEF08958823F8
:103E000011F08FEF089580B18095881F8827881F53
:103E10000895009711F484E109C08130910511F4EF
:103E20008CE104C08230910529F484E20E94081DCF
:103E300081E00895039711F08FEF08958CE20E94BE
:103E4000081D81E00895009711F484E109C08130D4
:103E5000910511F48CE104C08230910529F484E2CB
:103E60000E94E11B81E00895039711F08FEF089500
:103E70008CE20E94E11B81E00895009711F484E137
:103E800009C08130910511F48CE104C082309105A4
:103E900029F484E20E94581C81E00895039711F0F0
:103EA0008FEF08958CE20E94581C81E008958823CA
:103EB00019F085B78F7E02C085B7806185BF81E02C
:103EC0000895982F8091C00085FFFCCF8091C0009D
:103ED0008F7D8093C0009093C6000895982F8091A5
:103EE000C80085FFFCCF9093CE0008959093C50045
:103EF0008093C40086E08093C200E1ECF0E0808112
:103F00008B7F8083A0ECB0E08C9182608C93808169
:103F10008861808308959093CD008093CC0086E0E3
:103F20008093CA00E9ECF0E080818B7F8083A8EC6D
:103F3000B0E08C9182608C93808188618083089549
:103F40008091C00087FFFCCF8091C0008F77809365
:103F5000C0008091C60008959093CD008093CC005E
:103F600086E08093CA008091C9008B7F8093C9004E
:103F70008091C80082608093C8008091C9008861E8
:103F80008093C9008EE69FE16EE77BE10E94C43713
:103F90009093070D8093060D8EE69FE16EE77BE11F
:103FA0000E94C4379093050D8093040D0E940F2545
:103FB00080935F0C8F3F19F48EE00E94E4231092EF
:103FC000600C1092DE0B8091C90080688093C9005C
:103FD000089580915F0C8F3F19F48EE00E94E423D6
:103FE00080915F0C0895CF93DF93EC0107C060913F
:103FF000060D7091070D90E00E941038FE01219689
:1040000084918823A1F7DF91CF9108951F920F9299
:104010000FB60F920BB60F9211242F933F934F932D
:104020005F936F937F938F939F93AF93BF93EF9320
:10403000FF938091C9008F778093C9008091C80059
:1040400087FFFCCF8091C8008F778093C800909144
:10405000CE008091DE0BE82FF0E0E152F44F908328
:104060008F5F8093DE0B803811F41092DE0B80910D
:104070005F0C0E9495268091C8008F778093C800BE
:104080008091C90080688093C900FF91EF91BF9132
:10409000AF919F918F917F916F915F914F913F91E0
:1040A0002F910F900BBE0F900FBE0F901F90189581
:1040B00000000000000000000197D1F70895FC0106
:1040C00087E090E060810E94E53881E008950F93D9
:1040D0001F93CF93DF938C01C8E0D0E0CE01F801AD
:1040E00061918F010E94E5382196C831D105B1F761
:1040F00081E0DF91CF911F910F910895FC0186E03F
:1041000090E060810E94E53881E008950E94E538E2
:1041100008950F931F938C0187E090E00E94DD3893
:10412000F801808381E01F910F9108950F931F93F1
:10413000CF93DF938C01C8E0D0E0CE010E94DD3840
:10414000F80181938F012196C831D105B1F781E043
:10415000DF91CF911F910F9108950F931F938C01C1
:1041600086E090E00E94DD38F801808381E01F91B5
:104170000F9108950F931F938C0185E090E00E94AA
:10418000DD38F801808381E01F910F910895FF923F
:104190000F931F938C0180E090E00E94DD38F801BE
:1041A000838381E090E00E94DD38F801828382E021
:1041B00090E00E94DD38F801818383E090E00E9466
:1041C000DD38F82EF801808384E090E00E94DD382D
:1041D000F80191812281920F9F0D2381920F8917FF
:1041E00011F08FEF01C081E01F910F91FF900895B2
:1041F0000E94DD380895F894089578940895F8940D
:10420000FFCF85E690E008950E947E2E0895EF92FC
:10421000FF920F931F93CF93DF93EC018B017A01F1
:104220008985823021F08091CE0C888301C018826C
:104230008091CE0C833020F087E060E00E94DD2387
:104240008985823029F08091CE0C8F5F8093CE0CCF
:104250008091CE0C882319F481E08093CE0C888164
:10426000992787FD9095FC0145E0EE0FFF1F4A95C9
:10427000E1F7E80FF91FED59F34F118300838881AF
:10428000992787FD9095FC0135E0EE0FFF1F3A95C9
:10429000E1F7E80FF91FED59F34F88858287888190
:1042A000992787FD9095FC0125E0EE0FFF1F2A95C9
:1042B000E1F7E80FF91FED59F34F83E0818728817B
:1042C000822F992787FD9095FC0105E0EE0FFF1FD7
:1042D0000A95E1F7E80FF91FED59F34F2087888120
:1042E000992787FD9095FC0115E0EE0FFF1F1A95A9
:1042F000E1F7E80FF91FED59F34F158208811127F7
:1043000007FD10952B853C854D855E856F857889E9
:1043100089899A890E94C02CF801B5E0EE0FFF1F31
:10432000BA95E1F7E00FF11FED59F34F948F838FAA
:104330000881112707FD10952B8D3C8D4D8D5E8DCD
:104340006F8D78A189A19AA10E94C02CF801A5E0E7
:10435000EE0FFF1FAA95E1F7E00FF11FED59F34FA4
:10436000968B858B8881992787FD9095FC0175E058
:10437000EE0FFF1F7A95E1F7E80FF91FED59F34FA4
:1043800085899689238D348D820F931F908F878B1B
:104390000881112707FD10952B893C894D895E897D
:1043A0006F89788D898D9A8D0E94C02CF80165E007
:1043B000EE0FFF1F6A95E1F7E00FF11FED59F34F84
:1043C000968F858F8881992787FD9095FC0155E010
:1043D000EE0FFF1F5A95E1F7E80FF91FED59F34F64
:1043E000858D968D928F818F8881992787FD9095F5
:1043F000FC0145E0EE0FFF1F4A95E1F7E80FF91FBA
:10440000ED59F34F81E090E090A3878F8881992741
:1044100087FD9095FC0135E0EE0FFF1F3A95E1F71F
:10442000E80FF91FED59F34FF382E2828881992753
:1044300087FD9095FC0125E0EE0FFF1F2A95E1F71F
:10444000E80FF91FED59F34F81E08487DF91CF9199
:104450001F910F91FF90EF900895CF92DF92EF920E
:10446000FF920F931F93DF93CF930F92CDB7DEB7D9
:104470007BE6E72E7CE0F72E90E0F70100810F3F0E
:10448000C1F06BE6C62E6CE0D62E10E0911751F00D
:10449000F6018081081731F485E0602F99830E942E
:1044A000DD2399811F5F21E230E0C20ED31E13305D
:1044B00069F79F5FE1E2F0E0EE0EFF1E9330E9F650
:1044C0000E942028282F332727FD3095F90155E039
:1044D000EE0FFF1F5A95E1F7E20FF31FED59F34F6F
:1044E00032853093E10C21E28202C00111248D5902
:1044F000934F9093E00C8093DF0C9093D10C8093BA
:10450000D00C3093D20C0E9432350E941C350E9490
:104510005535FFCF0F931F93DF93CF93CDB7DEB702
:10452000A3970FB6F894DEBF0FBECDBF0E940F2534
:104530008093CF0C8F3F21F48EE060E00E94DD235A
:104540000E94A434882321F486E060E00E94DD23E9
:104550001092D20C1092E00C1092DF0C1092D10C41
:104560001092D00C1092E10C1092DE0C8FEF809321
:10457000C80C8093CA0C8093C90C8093CB0C809399
:10458000CD0C8093CC0C93E690936D0C80936B0CC8
:1045900090938E0C80938C0C9093AF0C8093AD0C09
:1045A000E2EEFCE0CF01059694838383F783E683F4
:1045B000FC018CE0E13FF807A9F71092E40C10929F
:1045C000E30C148213821092D50C1092D40C3F97F6
:1045D000F093620CE093610C8E010F5F1F4FC801D6
:1045E00063E67EE20E94ED34C80163E77AE040E8CA
:1045F00050E00E94373585E58093730A19861C8E3A
:104600001D8E1E8E1F8E18A219A21AA21BA291E047
:10461000988782E08A879B87C8010E94342BA396E3
:104620000FB6F894DEBF0FBECDBFCF91DF911F91C3
:104630000F910895E091DF0CF091E00C84870895CC
:10464000E091DF0CF091E00C84850895DC01FB0122
:104650008091F409882329F080838091CE038C9384
:1046600081E008951F938091F409882311F41F912C
:1046700008950E94FB200E94FB2089E993E00E949C
:10468000F31F00D000D0EDB7FEB7319688EC92E072
:10469000ADB7BEB712969C938E9311978091CE03BF
:1046A000828313820E943C380F900F900F900F90DE
:1046B00085E993E00E94F31F8091F409843110F0A2
:1046C0001092F4098091F40990E0FC013197E231F5
:1046D000F105F0F5EA59FF4FEE0FFF1F0590F49139
:1046E000E02D09948EE693E035C08AE593E032C070
:1046F00084E493E02FC089E293E02CC083E193E04F
:1047000029C08BEF92E026C088EE92E023C085EDB1
:1047100092E020C087EB92E01DC082E992E01AC0CF
:1047200086E892E017C08BE692E014C08CE592E038
:1047300011C08BE492E00EC087E392E00BC087E1EA
:1047400092E008C08FEF91E005C084EE91E002C0D6
:104750008DED91E00E94F31F6091060D7091070DA1
:104760008DE090E00E9410386091060D7091070D69
:104770008AE090E00E94103882E090E00E943D1FA5
:1047800083E090E00E94231F10E088EE93E00E94F7
:104790007B311F5F1436C9F783E090E00E943D1F14
:1047A00082E090E00E94231F10E088EE93E00E94D8
:1047B0007B311F5F1436C9F7DFCF8093F409609314
:1047C000CE030E94322308958093F409E091DF0C18
:1047D000F091E00C80858093CE030E9432230895EF
:1047E000992787FD9095FC0125E0EE0FFF1F2A9584
:1047F000E1F7E80FF91FED59F34FA281B3818C91D6
:10480000853521F085E58C938FEF08958081918126
:104810008050924210F481E0089582E10E94E423E6
:104820008FEF08956F927F928F929F92AF92BF9277
:10483000CF92DF92EF92FF920F931F93CF93DF936C
:1048400085EA93E00E94F31F00D000D08BEC92E049
:10485000ADB7BEB712969C938E931197E091DF0C83
:10486000F091E00C8085992787FD909514969C9394
:104870008E9313970E943C38E091DF0CF091E00C8E
:104880000281138184ED92E0EDB7FEB792838183BC
:10489000148303830E943C38EDB7FEB7319651EE86
:1048A000C52E52E0D52EADB7BEB71296DC92CE9291
:1048B0001197D8018C91828313820E943C384EEE6E
:1048C000E42E42E0F42EEDB7FEB7F282E182E091F1
:1048D000DF0CF091E00C80819181ADB7BEB71496EA
:1048E0009C938E9313970E943C3808EF12E0EDB72B
:1048F000FEB7128301838091DF0C9091E00C9483CA
:1049000083830E943C38C3E6DCE0AA24BB240F90DA
:104910000F900F900F9038E0632E33E0732E460116
:10492000670178010A811B8100D000D000D0EDB76B
:10493000FEB73196ADB7BEB712967C926E921197C4
:10494000B382A282158304830E943C380F900F909B
:10495000EDB7FEB73196ADB7BEB711968C921197F1
:1049600012969C92D8018C91828313820E943C38CB
:10497000EDB7FEB7C182D282888199819483838307
:104980000E943C38ADB7BEB71196EC9211971296C3
:10499000FC9212971496DC93CE9313970E943C38A6
:1049A0000894A11CB11CA1960F900F900F900F902E
:1049B000B3E0AB16B10409F0B5CFDF91CF911F91F1
:1049C0000F91FF90EF90DF90CF90BF90AF909F90AE
:1049D0008F907F906F900895CF93DF93E091DF0CDD
:1049E000F091E00CC281D3818881853539F00E9435
:1049F000122481E00E94E42385E58883E091DF0CA6
:104A0000F091E00C808191818050924228F00E94C8
:104A1000122482E10E94E423DF91CF910895409116
:104A2000300450913104609132047091330420E0DD
:104A300030E0DB01CA01022E04C0B695A795979518
:104A400087950A94D2F781709070892BD1F481E018
:104A500090E0A0E0B0E0022E04C0880F991FAA1FCA
:104A6000BB1F0A94D2F7842B952BA62BB72B8093D0
:104A7000300490933104A0933204B0933304822F16
:104A800008952F5F3F4F2032310599F68FEF08953B
:104A9000E091DF0CF091E00C658576858785908943
:104AA0000895EF92FF920F931F9321E030E040E0D2
:104AB00050E004C0220F331F441F551F8A95D2F7C0
:104AC000E091DF0CF091E00CE584F6840785108915
:104AD000DA01C9018E219F21A023B1230097A105EE
:104AE000B10511F48FEF19C0209530954095509580
:104AF000E222F32204231523E586F6860787108B2E
:104B000081899289A389B48982239323A423B5231D
:104B1000818B928BA38BB48B81E01F910F91FF90BF
:104B2000EF900895682F772767FD70958091300486
:104B300090913104A0913204B0913304062E04C048
:104B4000B695A795979587950A94D2F7817090703E
:104B5000892B11F48FEF0895E091DF0CF091E00CB8
:104B600021E030E040E050E004C0220F331F441F3A
:104B7000551F6A95D2F785859685A785B089822BC2
:104B8000932BA42BB52B85879687A787B08B81E0C5
:104B90000895382F8091DE0C882319F020E030E052
:104BA00022C08091C80C8F3F11F420E007C0809193
:104BB000CB0C8F3F11F022E001C021E0822F90E06A
:104BC000FC01EE0FFF1FE80FF91FE853F34F32838C
:104BD0003083618381E08093DE0C83E0289F900125
:104BE00011242853334FC90108952CE0883C9207C3
:104BF00011F480E008958B5C9C4011F08FEF0895D4
:104C000081E008952CE0883C920711F480E009C00F
:104C10008B5C9C4029F081E00E941A238FEF08955D
:104C200081E0992787FD9095FC01EE0FFF1FE80FAB
:104C3000F91FE853F34F8FEF808382838183809144
:104C4000DE0C81508093DE0C81E008952CE0883CDE
:104C5000920711F480E009C08B5C9C4029F081E050
:104C60000E941A238FEF089581E0992787FD909580
:104C7000FC01EE0FFF1FE80FF91FE853F34F82818D
:104C800008951F93CF93DF932CE0883C920711F493
:104C900010E009C08B5C9C4029F081E00E941A233F
:104CA0008FEF3FC011E0812F992787FD9095EC0190
:104CB000CC0FDD1FC80FD91FC853D34F9A818881ED
:104CC000981774F50E94FB208A818F5F8A83E09198
:104CD000DF0CF091E00C1482EAE6FCE0212F332790
:104CE00027FD3095432F532F63E08081823089F474
:104CF00082859385A485B58582179307A407B50798
:104D000041F46283178616861082128613861486F3
:104D10001586B1968CE0ED3CF80739F70E94FD202E
:104D200081E0DF91CF911F910895DF92EF92FF9282
:104D30000F931F93E1E0EE2EF12C012D112D04C0F5
:104D4000EE0CFF1C001F111F8A95D2F780913004D2
:104D500090913104A0913204B09133048E219F21AF
:104D6000A023B1230097A105B10511F481E041C052
:104D70000E94FB20EAE6FCE0DD2423E08081813014
:104D8000B1F482859385A485B5858E219F21A023CA
:104D9000B1230097A105B10551F02283178616862D
:104DA0001082E286F38604871587DD24D394808100
:104DB000823099F482859385A485B5858E159F05EB
:104DC000A007B10751F42283178616861082128637
:104DD000138614861586DD24D394B1968CE0ED3CC1
:104DE000F80761F60E94FD20DD2011F081E004C08B
:104DF00082E00E941A238FEF1F910F91FF90EF9096
:104E0000DF900895EF92FF920F931F93CF93DF935C
:104E1000C82FDD27C7FDD095F1E0EF2EF12C012D35
:104E2000112D0C2E04C0EE0CFF1C001F111F0A9444
:104E3000D2F78091300490913104A0913204B09166
:104E400033048E219F21A023B1230097A105B10532
:104E500011F48FEF5CC00E94FB20EAE6FCE0A801A1
:104E60009701209530954095509563E081818F3F63
:104E700039F186819781A085B1858E159F05A007A0
:104E8000B10731F412861386148615861082628368
:104E900086819781A085B18582239323A423B5239E
:104EA00086839783A087B18782859385A485B585FE
:104EB00082239323A423B52382879387A487B5876E
:104EC000B1968CE0ED3CF80789F62EEF3FEF4FEFFF
:104ED0005FEF04C0220F331F441F551FCA95D2F73E
:104EE0008091300490913104A0913204B091330448
:104EF00082239323A423B523809330049093310419
:104F0000A0933204B09333040E94FD2081E0DF912E
:104F1000CF911F910F91FF90EF9008951F93CF9322
:104F2000DF932CE0883C920711F410E009C08B5C01
:104F30009C4029F081E00E941A238FEF40C011E0CD
:104F40000E94FB20C12FDD27C7FDD095FE01EE0F8B
:104F5000FF1FEC0FFD1FE853F34F82818823B9F444
:104F6000E091DF0CF091E00C878182608783812FD4
:104F7000992787FD9095A92FB92F818B928BA38BB1
:104F8000B48B0E94FD2080E090E00E94662AFE0122
:104F9000EE0FFF1FEC0FFD1FE853F34F828181508E
:104FA0008283A091DF0CB091E00C81811B968C93E1
:104FB0001B9781E014968C930E94FD2081E0DF9185
:104FC000CF911F9108959B01AC01E091DF0CF0910E
:104FD000E00C85859685A785B08982239323A42339
:104FE000B5230097A105B10529F420E030E040E0A9
:104FF00050E023C0218B328B438B548B81E087831D
:105000000090CF0C04C056954795379527950A9484
:10501000D2F7C90181709070892B19F00E94042A7F
:1050200004C080E090E00E94662AE091DF0CF091DD
:10503000E00C2189328943895489B901CA01089554
:10504000E091D40CF091D50C80810895E091D40CBE
:10505000F091D50C03C00380F481E02D3097D9F78F
:105060000895DF92EF92FF920F931F93CF93DF93F8
:10507000D82EC091610CD091620C209709F49BC08E
:105080004091D40C5091D50C4115510519F4A0E074
:10509000B0E057C0DA01282F332727FD3095C9012A
:1050A00065E0880F991F6A95E1F7820F931F8D596C
:1050B000934FBC01665F7F4F24E0E22EF12CE80E97
:1050C000F91E8C01055F1F4F8C91282F30E0F901EC
:1050D00085E0EE0FFF1F8A95E1F7E20FF31FED5910
:1050E000F34F8481882329F09385FB0180819817F1
:1050F00040F1F7018081882379F0F90195E0EE0F06
:10510000FF1F9A95E1F7E20FF31FED59F34F9285D8
:10511000F80180819817A8F0F90185E0EE0FFF1FD4
:105120008A95E1F7E20FF31FED59F34F9285FB01EA
:105130008081981730F013960D90BC91A02D109798
:1051400019F6D882EB81FC81F093620CE093610C3C
:10515000A417B507B1F4109749F0BC83AB831A824A
:1051600019821296DC93CE93119706C01C821B8283
:105170001A821982D283C183D093D50CC093D40CE8
:105180001AC011968D919C911297AE17BF0759F0D6
:105190009A838983BC83AB831196ED91FC9112971E
:1051A000D483C38304C01C821B829A838983129692
:1051B000DC93CE931197DF91CF911F910F91FF90C8
:1051C000EF90DF900895CF93DF93A091D40CB0912E
:1051D000D50C109709F453C0282F332727FD30959D
:1051E0008C9190E08217930779F41396ED91FC91DE
:1051F0001497F093D50CE093D40C1282118212C054
:10520000DA0141155105D9F18C9190E013964C913A
:10521000139714965C9114978217930789F722C00D
:10522000FA83E983E091610CF091620C309749F4C4
:10523000B093620CA093610C14961C921E9213976B
:105240000AC01496FC93EE931397B283A183B09394
:10525000620CA093610CE091610CF091620C1282DF
:1052600011820DC01196ED91FC91129743835483E6
:105270001396CD91DC911497209791F6D3CFDF91BF
:10528000CF910895E091DF0CF091E00C80850895B6
:105290000E94E234E091DF0CF091E00C85818823DC
:1052A000B9F70895FF920F931F93DF93CF93CDB774
:1052B000DEB728970FB6F894DEBF0FBECDBF2983A7
:1052C0003A834B835C836D837E838F8398870E94B0
:1052D000EC240E94FB20E091DF0CF091E00C81E0D7
:1052E000858381E090E090A3878F0E94A132F82E01
:1052F00029813A814B815C816D817E818F81988586
:105300000E94C02CE091DF0CF091E00C0F2D10E01A
:10531000800F911F968B858B87EF8F1570F00E9401
:1053200037320F5F1F4F90E00817190734F48F2DA5
:105330008E5F80938F0B0E943B320E94FD200E9463
:10534000482981E028960FB6F894DEBF0FBECDBF86
:10535000CF91DF911F910F91FF9008958F929F92AF
:10536000AF92BF92CF92DF92EF92FF920F931F9373
:10537000DF93CF93CDB7DEB760970FB6F894DEBF5B
:105380000FBECDBF29873A874B875C876D877E87A5
:105390008F87988BCE0101960E94082ECE01099628
:1053A00009851A852B853C854D855E856F857889B5
:1053B00089809A80AB80BC80CD80DE80EF80F884CD
:1053C0000E94882B882311F48FEF0BC029853A8522
:1053D0004B855C856D857E858F8598890E945229D5
:1053E00081E060960FB6F894DEBF0FBECDBFCF91BF
:1053F000DF911F910F91FF90EF90DF90CF90BF90C2
:10540000AF909F908F9008951F930E94FB20E09192
:10541000DF0CF091E00C81E0858386830E94A1324D
:10542000182F883F80F40E943732212F30E02F5F01
:105430003F4F90E02817390734F4812F8E5F809317
:105440008F0B0E943B320E94FD200E94482981E080
:105450001F9108951F93DF93CF93CDB7DEB72897A1
:105460000FB6F894DEBF0FBECDBF29833A834B83BE
:105470005C836D837E838F8398870E94FB200E94CC
:10548000A132182F29813A814B815C816D817E8107
:105490008F8198850E94C02C8330910510F48FEF86
:1054A0000BC0E091DF0CF091E00C810F911D968B09
:1054B000858B0E94FD2081E028960FB6F894DEBF10
:1054C0000FBECDBFCF91DF911F9108950F931F9312
:1054D0008C010E94FB20E091DF0CF091E00C81E058
:1054E0008583168B058B0E94A132082F883F80F49C
:1054F0000E943732202F30E02F5F3F4F90E0281777
:10550000390734F4802F8E5F80938F0B0E943B32DB
:105510000E94FD200E94482981E01F910F9108956B
:10552000FF920F931F93CF93DF938C010E94FB2078
:10553000E091DF0CF091E00C81E085830E94A132C4
:10554000F82EE091DF0CF091E00CC82FD0E00C0FAA
:105550001D1F168B058B87EF8F1568F00E94373261
:10556000219690E0C817D90734F48F2D8E5F809371
:105570008F0B0E943B320E94FD200E94482981E04F
:10558000DF91CF911F910F91FF9008951F93CF93BB
:10559000DF93EC010E94EC24209711F4C1E0D0E0ED
:1055A0000E94FB20E091DF0CF091E00C81E085830C
:1055B000D0A3C78F0E94A132182F883F80F40E9489
:1055C0003732212F30E02F5F3F4F90E02817390707
:1055D00034F4812F8E5F80938F0B0E943B320E94A8
:1055E000FD200E94482981E0DF91CF911F9108950D
:1055F0001F930E94EC240E94FB20E091DF0CF091AD
:10560000E00C81E090E090A3878F81E085830E9489
:10561000A132182F883F80F40E943732212F30E0CA
:105620002F5F3F4F90E02817390734F4812F8E5FAA
:1056300080938F0B0E943B320E94FD200E944829DC
:1056400081E01F910895E091DF0CF091E00C8085DE
:105650000E94E328E091DF0CF091E00C84E0818768
:105660000E94F82A81E00895EF92FF920F931F9312
:10567000CF93DF93EC0169817A814B815C818D81CD
:105680009E810E94F134BC018F81882369F04B8197
:105690005C81CE0120E030E000E010E0EE24FF2449
:1056A0000E9407211F8215C08881992787FD909548
:1056B000FC01A5E0EE0FFF1FAA95E1F7E80FF91F27
:1056C000ED59F34F8185833011F08FEF1AC071834C
:1056D00060838881992787FD9095FC0175E0EE0F26
:1056E000FF1F7A95E1F7E80FF91FED59F34F858910
:1056F0009689892B29F482E0818788810E9431284C
:1057000081E0DF91CF911F910F91FF90EF9008956D
:105710008F929F92AF92BF92CF92DF92EF92FF92C1
:105720000F931F93DF93CF93CDB7DEB760970FB67C
:10573000F894DEBF0FBECDBFFC0109831A832B8313
:105740003C834D835E836F83788789869A86AB8698
:10575000BC86CD86DE86EF86F88A89819A81AB8108
:10576000BC812D813E814F815885E984FA840B8567
:105770001C85AD84BE84CF84D8888E159F05A00774
:10578000B107F0F1E816F9060A071B0791F42A158C
:105790003B054C055D05A0F12A193B094C095D0943
:1057A00024833583468357831082118212821382A9
:1057B0001CC02A153B054C055D05C8F40197A109DD
:1057C000B1098E199F09A00BB10B80839183A2832D
:1057D000B383205036434546544C2A193B094C09A3
:1057E0005D09248335834683578381E00AC08E197F
:1057F0009F09A00BB10B80839183A283B383EDCF6C
:1058000080E060960FB6F894DEBF0FBECDBFCF919B
:10581000DF911F910F91FF90EF90DF90CF90BF909D
:10582000AF909F908F9008958F929F92AF92BF926A
:10583000CF92DF92EF92FF920F931F93DF93CF935C
:10584000CDB7DEB760970FB6F894DEBF0FBECDBF01
:10585000FC0109831A832B833C834D835E836F8312
:10586000788789869A86AB86BC86CD86DE86EF866B
:10587000F88AAD80BE80CF80D884ED84FE840F8509
:10588000188989859A85AB85BC8529813A814B81A8
:105890005C81820F931FA41FB51F80839183A28315
:1058A000B383EA0CFB1C0C1D1D1DE482F5820683EC
:1058B000178313C080509A4CAA49BB4384839583B5
:1058C000A683B78380819181A281B3810196A11DB6
:1058D000B11D80839183A283B38384819581A68146
:1058E000B78180302AEC92072AE9A2072BE3B2079E
:1058F00008F781E060960FB6F894DEBF0FBECDBF0B
:10590000CF91DF911F910F91FF90EF90DF90CF909B
:10591000BF90AF909F908F900895FC0113C080506E
:105920009A4CAA49BB4384839583A683B78380811D
:105930009181A281B3810196A11DB11D80839183C4
:10594000A283B38384819581A681B78180302AECBC
:1059500092072AE9A2072BE3B20708F7089560939C
:10596000D60C7093D70C8093D80C9093D90C2093BD
:10597000DA0C3093DB0C4093DC0C5093DD0C089573
:105980008F929F92AF92BF92CF92DF92EF92FF924F
:105990000F931F93DF93CF93CDB7DEB728970FB642
:1059A000F894DEBF0FBECDBF29833A834B835C835F
:1059B0006D837E838F839887E980FA800B811C81B9
:1059C000AD80BE80CF80D884E114F10401051105BB
:1059D00001F180E09AECAAE9BBE3A80EB91ECA1E49
:1059E000DB1EC601B50123EB36EE4EE050E00E940F
:1059F000063749010894E108F108010911098AE014
:105A0000EE0CFF1C001F111F8A95D1F78E0C9F1CF6
:105A100009C0C601B50123EB36EE4EE050E00E940E
:105A200006374901B40102C06050744094E061300F
:105A30007907D0F780E090E023EB36EE4EE050E0BF
:105A40000E94C036675A7C48884F9F4F6A157B0575
:105A50008C059D0518F40894811C911CC40128969E
:105A60000FB6F894DEBF0FBECDBFCF91DF911F916F
:105A70000F91FF90EF90DF90CF90BF90AF909F90ED
:105A80008F900895EF92FF920F931F93DF93CF9320
:105A9000CDB7DEB728970FB6F894DEBF0FBECDBFE7
:105AA0007B018C0173708070907023EB36EE4EE0BA
:105AB00050E00E94C0366D837E838F839887A80153
:105AC0009701EAE05695479537952795EA95D1F7DE
:105AD00029833A834B835C833A814B815C8128968E
