:100000000C944C020C9422360C946B020C946B02F0
:100010000C946B020C946B020C946B020C946B02AC
:100020000C946B020C9454360C946B020C946B027F
:100030000C946B020C9486340C946B020C948634F2
:100040000C946B020C94B9340C946B020C946B02FC
:100050000C946B020C946B020C946B020C946B026C
:100060000C946B020C946B020C946B020C946B025C
:100070000C946B020C946B020C946B020C946B024C
:100080000C94C3340C946B020C946B020C946B02B2
:100090000C94D4210C946B020C946B020C946B02A4
:1000A0000C946B020C946B020C946B020C946B021C
:1000B0000C946B020C946B020C946B020C946B020C
:1000C0000C946B020C946B020C946B023F2545253B
:1000D00048254B254E255125572554255A255D2564
:1000E0006025662569256C256F2563253C254225FD
:1000F0004661696C656420746F206C6F6164206D6B
:100100007920414443206472697665720D0A004388
:10011000726561746520446F6E650D0A00437265F7
:1001200061746520446F6E650D0A005461736B2025
:1001300064617461206661696C65640D0A005461D4
:10014000736B20676F7420646174613A200053748C
:10015000617274696E672075702E2E2E0D0A005222
:10016000542D4C696E6B204552524F523A206372A7
:10017000656174696E67207478207369676E616C5D
:10018000206661696C65640D0A0052542D4C696EDD
:100190006B204552524F523A206372656174696E0A
:1001A00067207278207369676E616C206661696C84
:1001B00065640D0A00534C495020525820657272F4
:1001C0006F723A206E726B5F7369676E616C5F72FB
:1001D000656769737465720D0A00534C495020526B
:1001E00058206572726F723A2047657420536967B0
:1001F0006E616C0D0A00534C4950205458204552F2
:10020000524F523A202052656C65617365206F66CB
:100210002073656D6170686F7265206661696C65D9
:10022000640D0A00534C4950205458204552524FF7
:10023000523A202041636365737320746F207365A5
:100240006D6170686F7265206661696C65640D0A26
:1002500000434332343230204552524F523A20202C
:1002600052656C65617365206F662073656D6170A2
:10027000686F7265206661696C65640D0A004343AE
:1002800032343230204552524F523A20204163637B
:1002900065737320746F2073656D6170686F72652C
:1002A000206661696C65640D0A00554E4B4F574ED0
:1002B000004661696C656420746F206372656174C7
:1002C000652053656D6170686F7265004661696C89
:1002D000656420746F20637265617465205369677B
:1002E0006E616C004B65726E656C2066756E637432
:1002F000696F6E206E6F7420696D706C656D656ED0
:100300007465640044657669636520447269766546
:1003100072204572726F72005761746368646F6710
:1003200020526573746172740054696D6572204F58
:10033000766572666C6F7700556E68616E646C6589
:100340006420496E746572727570742056656374AA
:100350006F72004C6F7720566F6C74616765004553
:1003600078747261205461736B2073746172746568
:10037000642C206973206E726B5F6366672E682041
:100380006F6B3F0049646C65206F72204B65726E25
:10039000656C20537461636B204F766572666C6F79
:1003A0007700556E65787065637465642052657377
:1003B00074617274004475706C6963617465642063
:1003C0005461736B204944005363686564756C65C0
:1003D00072204D69737365642057616B6575700099
:1003E0005461736B20526573657276652056696F30
:1003F0006C61746564005265736572766520457240
:10040000726F7220696E205363686564756C6572E3
:1004100000496E76616C696420537461636B20508F
:100420006F696E746572005461736B2053746163FD
:100430006B204F766572666C6F7700537461636BE7
:1004400020776173206E6F7420646566696E6564E1
:10045000206173206C6172676520656E6F756768D7
:100460002100293A20002A4E524B204552524F5229
:1004700028000D0A535441434B2044554D500D0A5A
:100480000045464765666700202B2D2E30313233FC
:10049000343536373839680011241FBECFEFD1E22A
:1004A000DEBFCDBF12E0A0E0B2E0E4EEF8E700E08E
:1004B0000BBF02C007900D92A83FB107D9F71DE00E
:1004C000A8EFB2E001C01D92A732B107E1F70E9488
:1004D00054050C94703C0C94F534CF93DF93EC01ED
:1004E0004091FA025091FB0284E790E0489FD001CE
:1004F000499FB00D589FB00D1124A550BA4F20E070
:1005000030E0772767FD709507C0FE01E20FF31F0B
:1005100080818D932F5F3F4F26173707B4F3FA0181
:10052000EC5FFC4F81E08083CA0101969093FB024F
:100530008093FA02069721F41092FB021092FA02BD
:10054000DF91CF91089586ED90E161E00E945832ED
:100550008F3F21F480EF90E00E94C12108958F9297
:100560009F92AF92BF92CF92DF92EF92FF920F9342
:100570001F938DE394E09093D4038093D3038DE78E
:1005800095E09093D0038093CF038EEF94E0909307
:10059000D2038093D10322E0C22EC092D603DD2481
:1005A000D394D092D503D092D703D092D80391E0C0
:1005B000892E912CA12CB12C8092D9039092DA0330
:1005C000A092DB03B092DC031092DD031092DE03F5
:1005D0001092DF031092E0031092E1031092E20305
:1005E0001092E3031092E403E12C81EEF82E85EFE4
:1005F000082F85E0182FE092E503F092E6030093C0
:10060000E7031093E8031092E9031092EA031092B3
:10061000EB031092EC031092ED031092EE03109294
:10062000EF031092F0038EEC93E00E94162D8DE103
:1006300091E00E94C1218AEC93E09093290A809373
:10064000280A81E894E09093250A8093240A82E0A6
:1006500094E09093270A8093260AC0922B0AD092A6
:100660002A0AD0922C0AD0922D0A80922E0A9092B9
:100670002F0AA092300AB092310A1092320A1092D8
:10068000330A1092340A1092350A1092360A1092E8
:10069000370A1092380A1092390AE0923A0AF09218
:1006A0003B0A00933C0A10933D0A10923E0A1092B6
:1006B0003F0A1092400A1092410A1092420A109288
:1006C000430A1092440A1092450A83E29AE00E947B
:1006D000162D8FE091E00E94C1211F910F91FF9094
:1006E000EF90DF90CF90BF90AF909F908F90089544
:1006F0000F931F932091F8023091F902F901EC5FFA
:10070000FC4F8081813099F504E710E0209FC00103
:10071000219F900D309F900D1124DC01A250BA4F03
:10072000FD0101900020E9F7EA1BED5F85509A4F2B
:100730006E2F40E00E94BE092091F8023091F9022C
:10074000F901EC5FFC4F1082209FF001219FF00D1A
:10075000309FF00D1124E550FA4F80E092E0808345
:100760002F5F3F4F3093F9022093F80206C081E0DB
:1007700092E06AE040E00E94BE098091F802909108
:10078000F902069721F41092F9021092F8021F91D3
:100790000F910895CF92DF92EF92FF920F931F93E4
:1007A000DF93CF93CDB7DEB7C058D0400FB6F894E3
:1007B000DEBF0FBECDBF0E94242B00D000D0EDB70E
:1007C000FEB7319628E032E0ADB7BEB712963C9343
:1007D0002E931197828313820E943A3A87E192E026
:1007E000EDB7FEB792838183148213820E943A3A56
:1007F0000F900F900F900F9060911F0D7091200D32
:1008000080911D0D90911E0D40E050E020E030E001
:100810000E94011302C00E94DA2C0E94EC11019781
:10082000D1F76E010894C11CD11CC60160E870E0CC
:100830000E94F611082F1816DCF48EE391E00E9456
:10084000C12110E0E02EFF24E7FCF09407C0EC0D7E
:10085000FD1D808190E00E944C3A1F5FE12FF0E087
:10086000EE15FF05A4F384E292E00E94533ADDCF37
:100870008BE291E00E94C121D8CF2F923F924F92FC
:100880005F926F927F928F929F92AF92BF92CF9220
:10089000DF92EF92FF920F931F93CF93DF930E940B
:1008A000242B00D000D0EDB7FEB7319628E032E01F
:1008B000ADB7BEB712963C932E93119782831382E5
:1008C0000E943A3A87E192E0EDB7FEB792838183C6
:1008D000148213820E943A3A0F900F900F900F905B
:1008E00083E090E00E940B2182E00E94A4068EE04B
:1008F0000E94B90980E062E041E00E94CD0C80E0F6
:1009000064E041E00E94CD0C80E066E041E00E949E
:10091000CD0C81E060E041E00E94CD0C89E894E0DC
:1009200064E70E9403060E94660602C00E94DA2C59
:100930000E9499058823D1F3CAE8D5E0F6E22F2E6C
:10094000F2E03F2EEAE04E2E512C76EF672E7FEF3D
:10095000772E61E3862E62E0962E5DEFA52E5FEF87
:10096000B52EAC0EBD1E40E7C42E42E0D42E34E7B7
:10097000E32EF12C01E080E00E94D005882309F0ED
:1009800090C083EC98E00E94EA2F8091C308909178
:10099000C408A091C508B091C6082091C603309143
:1009A000C7034091C8035091C903821B930BA40B4A
:1009B000B50B0697A105B10508F46DC08DB79EB7BC
:1009C00008970FB6F8949EBF0FBE8DBFEDB7FEB768
:1009D0003196ADB7BEB71296DC93CE9311973382A2
:1009E000228255824482778266820E94883A182F3A
:1009F0000F900F90EDB7FEB73196ADB7BEB7129618
:100A00009C928E921197B382A282992787FD90952E
:100A1000958384830E943A3A1C5F0F900F900F9049
:100A20000F90EDB7FEB7D282C1820E943A3A409150
:100A3000FA025091FB024E9DD0014F9DB00D5E9D7C
:100A4000B00D1124A550BA4F20E030E00F900F9068
:100A5000612F772767FD709507C0F901E957FA4FB5
:100A600080818D932F5F3F4F26173707B4F3FA012C
:100A7000EC5FFC4F0083CA0101969093FB028093C8
:100A8000FA02069721F41092FB021092FA0286EC09
:100A900093E00E94EA2F0E94780381E090E00E9498
:100AA000D7200E943B0C67CF0E94821D87E090E018
:100AB0000E947A218EE491E00E94C1210E94582474
:100AC00080E090E00E94F12081E090E00E94F1201F
:100AD00082E090E00E94F12083E090E00E94F1200B
:100AE00060E070E080E090E020E030E040E050E046
:100AF0000E94912E0E94A3020E9411060E94AF0242
:100B00000E94FB2380E090E00895809115038130DE
:100B100011F08FEF08958091AF0A08958091150329
:100B2000813011F08FEF08958091530A08958FEF6F
:100B3000089580911503813011F08FEF089581E0C1
:100B40000895CF93DF93FC01DB01EA0180918605D4
:100B5000882331F410821C92188220E030E00DC00E
:100B60008091FB038083809100048C938091FD042D
:100B700088832091FD033091FE03C901DF91CF915D
:100B8000089520917A0A30917B0AC90108958091D5
:100B90009B0308958091B3080895109286050895E7
:100BA000282F813219F4809188040895809196034A
:100BB00090919703A0919803B091990304C0B695C2
:100BC000A795979587952A95D2F78170089580917A
:100BD00086050895909314038093130308959093CA
:100BE000B5088093B4080895909385058093840593
:100BF000089590939E0380939D0308959093B80861
:100C00008093B7080895662351F0009741F09093C0
:100C1000FE038093FD036093FC0381E008958FEF52
:100C200008950F931F9381E09AE09093A50380931A
:100C3000A4030FE913E0C80166E173E040E850E067
:100C40000E94193784E18093A70381E08093A60373
:100C50008093A8038093A9031092AA031092AB0378
:100C60001092AC031092AD038BE49CE1A6E8B0E0D7
:100C70008093AE039093AF03A093B003B093B103FE
:100C80001092B2031092B3031092B4031092B50302
:100C90001092B6031092B7031092B8031092B903E2
:100CA0001092BA031092BB031092BC031092BD03C2
:100CB0001092BE031092BF031092C0031092C103A2
:100CC000C8010E94162D1F910F9108958091B608BA
:100CD000823081F48091C20380FF07C080917F0A37
:100CE00090E08F70907005972CF081E060E044E018
:100CF0000E94CD0C0E94900E82E08093150308950F
:100D00000F931F93CF93DF93062F80939C03882329
:100D1000B1F01FE1CFE1D0E0C81BD1090BC080E0EA
:100D2000612F402F0E94CD0C81E0612F402F0E9447
:100D3000CD0C1150812F90E0C817D90784F3DF91B3
:100D4000CF911F910F9108951F93182F0E94D926BC
:100D50008093530A8F3F19F48AE891E008C00E94FB
:100D6000D9268093AF0A8F3F69F48FE591E00E9406
:100D7000C121E091D50CF091D60C8EE060850E94E7
:100D8000A7257DC01092FE031092FD031092FC0374
:100D90000E949C33109201041092BF0910926D0AB8
:100DA00010926C0A1092550A1092540A81E094E055
:100DB0009093690A8093680A10929B031093B60877
:100DC00010929C031092880410928505109284055D
:100DD00010929E0310929D031092B8081092B708CB
:100DE0001092B5081092B4081092140310921303D5
:100DF00084E68093120380E49FE190931103809333
:100E0000100380EA9FE090930F0380930E038AE023
:100E100080930C0380E899E190930B0380930A037D
:100E2000EFE7FAE011928AE0EF38F807D9F710926D
:100E30007E0510927F051092800510928105109218
:100E4000C2031092C3031092C4031092C503109200
:100E500086051092960310929703109298031092B1
:100E600099030E948D0D20910A0330910B0388EFA6
:100E700093E060910C0340E254E20E94571C1F91E2
:100E800008950E94BE1708951F93CF93DF93182FE4
:100E900080919B03882309F482C0E0919D03F09127
:100EA0009E03309711F0812F0995C12FD0E0FE01EC
:100EB000EE0FFF1FEC0FFD1FE054F64F8181928172
:100EC0009093BD088093BC0880818093BB08E0911B
:100ED000BC08F091BD088091680A9091690A9083DE
:100EE000E091BC08F091BD088091680A9091690A70
:100EF0008183E091BC08F091BD088091BF09828395
:100F00008091BB08833011F010E008C0E091BC086C
:100F1000F091BD0882818068828311E060915E0A51
:100F200070915F0A40910E0350910F0389EB98E096
:100F30000E947D1921E030E040E050E00C2E04C01A
:100F4000220F331F441F551F0A94D2F72095309566
:100F5000409550958091960390919703A0919803A6
:100F6000B091990382239323A423B52380939603FE
:100F700090939703A0939803B093990320919C03B7
:100F800080E290E0821B9109C817D90714F01092F3
:100F90008804112321F48091AF0A0E947128DF9107
:100FA000CF911F9108950F931F93DF93CF9300D09C
:100FB000CDB7DEB7082F88EF93E060910C030E9455
:100FC0001A1C0E947E170E94833490E09A838983C2
:100FD00089819A8104969A8389830BC00E94833405
:100FE00029813A8190E02817390718F40E94661782
:100FF00054C00E944714882389F30E94833490E0F0
:101000009A8389830E94833490E09A8389838981BB
:101010009A8105969A83898308C00E948334298126
:101020003A8190E02817390728F00E942315182FDD
:10103000882399F30E946617113079F5109386057D
:101040000093FD04E091FD03F091FE03908180E0A8
:10105000218130E0282B392B8091680A9091690A10
:101060002817390721F03093690A2093680AE09124
:101070008405F0918505309711F0802F0995E09156
:10108000FD03F091FE03828187FD05C08091530A24
:101090000E94712802C0109286050F900F90CF9188
:1010A000DF911F910F9108951F93FC01162F742F4C
:1010B000652F842F8F7121E030E040E050E004C0C4
:1010C000220F331F441F551F8A95D2F78091C20308
:1010D0009091C303A091C403B091C5032823392381
:1010E0004A235B23211531054105510511F080E0AC
:1010F00012C0F093250AE093240A1093230A7093F8
:10110000820460938304872F962F60E00E94A00DD5
:1011100081E08093B3081F910895BF92CF92DF9230
:10112000EF92FF920F931F93DF93CF9300D0CDB731
:10113000DEB7CC24DD24EE24BB24BA94E091FD0379
:10114000F091FE03B082E091FD03F091FE03B182C5
:1011500088EF93E060910C030E941A1C0E947E1796
:1011600010929B038AEF0E941D3410E01EC00E9463
:1011700083341817D1F00E948334182F0894C11CAF
:10118000D11C21E1C21627E2D20678F01092BF09E5
:10119000E39485E08E1518F0CC24DD240BC00E946A
:1011A000B736CC24DD24EE2405C00E944714F82E67
:1011B0008823E9F20E94A0330E94E5339A83898351
:1011C0000E948334082F10E00C5F1F4FFF2039F47A
:1011D0000BC00E94833490E00817190728F00E9482
:1011E0002315F82E8823A9F30E94661721E0F21632
:1011F00009F0A4CF8091FB0318160CF09FCFF0925A
:101200008605E091FD03F091FE03808190E09093CC
:10121000690A8093680A8091680A9091690A982FF8
:1012200088279093690A8093680A2091680A309110
:10123000690A818190E0822B932B9093690A8093B5
:10124000680ADF01129612811F778091BF0981170A
:1012500030F08F3608F472CF1A3008F06FCF8091DB
:10126000680A9091690A8F718093FD048C9187FDC3
:1012700018C02091FD0480917E0590917F05A0917A
:101280008005B091810504C0B695A795979587957F
:101290002A95D2F780FF05C08091530A0E947128D9
:1012A00002C0109286058091680A9091690A8F7138
:1012B0008093FD048091680A9091690A0197909348
:1012C0007B0A80937A0A109201041093BF0981E08F
:1012D00080939B0380916C0A90916D0A0E94DE0DB1
:1012E0008091680A9091690A8050944030F480910E
:1012F000680A9091690A029718F48EEF93E005C08E
:101300008091680A9091690A029790936D0A809380
:101310006C0A80916C0A90916D0A60E00E94A00DA9
:101320000E94900E0E94F8330E940F3487E00E94C2
:10133000033480E090E066E67CE60E94A8330E94D9
:101340000F340E9406340E94A0330E94E53390932C
:101350005F0A80935E0A80919B030F900F90CF915C
:10136000DF911F910F91FF90EF90DF90CF90BF9092
:10137000089580930C030E94441C08951F93CF93FB
:10138000DF93EC01162F413261F40E9465396091C0
:101390009C0370E00E94D5384FE1481B81E08093A8
:1013A0008804842F90E0FC01EE0FFF1FE80FF91F67
:1013B000E054F64FD283C183108321E030E040E057
:1013C00050E004C0220F331F441F551F8A95D2F7E7
:1013D0008091960390919703A0919803B0919903FF
:1013E000822B932BA42BB52B80939603909397037A
:1013F000A0939803B093990381E0DF91CF911F915F
:1014000008952F923F924F925F926F927F928F92A8
:101410009F92AF92BF92CF92DF92EF92FF920F9383
:101420001F93CF93DF93109215030E94DA2C8091C3
:1014300015038823D1F381E0809315031092C2082D
:101440001092C1088CEF92E00E94EA2FCC24C39442
:10145000212CE4E03E2E71E0872E912CA12CB12CA2
:1014600066E4462E6AE0562E50E2652E712C0E94EC
:10147000E53390935F0A80935E0A8CEF92E00E94BE
:10148000EA2F8091680A9091690A9093C20880932C
:10149000C1088150944021F41092C2081092C108F2
:1014A0008091680A9091690A90937B0A80937A0AE6
:1014B0008091680A9091690A8050944000F11092DE
:1014C000690A1092680A8091540A9091550A01960F
:1014D0009093550A8093540AE0911303F0911403FA
:1014E000309729F08091540A9091550A09950E94ED
:1014F000900E8091B608823011F4C0929B03E09167
:10150000B408F091B508309729F08091680A90915D
:10151000690A09958091B608882381F42091680AA8
:101520003091690A80916C0A90916D0A0196281792
:10153000390721F40E948D088823E1F38091680A1D
:101540009091690A0E94130E813059F4E091B70816
:10155000F091B808309729F08091680A9091690A53
:1015600009958091680A9091690A0E94980EEC0191
:101570008091680A9091690A0E946F0E009741F06D
:10158000209709F409C18C179D0708F405C109C00B
:10159000209739F48091680A9091690AE101C81B8B
:1015A000D90B8091680A9091690A4FE1D42ED82214
:1015B0008091B608823099F48091680A9091690A06
:1015C000892B09F0EBC08091BF098F5F8093BF0921
:1015D00087FFE4C01092BF09E1C0109201042D2DD5
:1015E00030E0850174010D2C04C0EE0CFF1C001FBF
:1015F000111F0A94D2F780910104882309F045C095
:101600008091C2039091C303A091C403B091C5031C
:101610008E219F21A023B1230097A105B105A9F137
:101620008091960390919703A0919803B0919903AC
:101630008E219F21A023B1230097A105B10519F5A3
:101640005092F5034092F4038091480A8068809399
:10165000480A53E05093F30380919C03A301481B75
:101660005109421753074CF480918804882359F498
:1016700081EF93E063E041E204C081EF93E063E037
:101680004D2D0E94BE09C09201042091680A30913C
:10169000690A80916C0A90916D0A2817390709F43C
:1016A00048C08091C2039091C303A091C403B0913C
:1016B000C503209196033091970340919803509170
:1016C000990382239323A423B5238E219F21A02352
:1016D000B1230097A105B10521F08D2D0E9444078B
:1016E00028C080917E0590917F05A0918005B091E2
:1016F00081058E219F21A023B1230097A105B1056B
:1017000041F080918605882321F48D2D0E94D30716
:1017100010C02091680A3091690A809182049091EA
:1017200083042817390729F481E20E9444071092A4
:10173000B3082091680A3091690A80916C0A9091EF
:101740006D0A2817390791F48091B608823071F03C
:101750008091680A9091690A01969093690A809332
:10176000680A85E090E00E94482C81CE8091680A4A
:101770009091690A8C0F9D1F9093690A8093680A63
:1017800080E090E00E94F120CE010E94A82C80E031
:1017900090E00E940B216BCEEC0103CFDD2009F419
:1017A0001CCF1DCF8F929F92AF92BF92CF92DF92AC
:1017B000EF92FF920F931F93DF93CF93CDB7DEB7D6
:1017C00028970FB6F894DEBF0FBECDBF8E010F5F16
:1017D0001F4FC8010E94EA2FC80109811A812B817D
:1017E0003C814D815E816F8178858090FC02909074
:1017F000FD02A090FE02B090FF02C0900003D090C6
:101800000103E0900203F09003030E946A2D6981B6
:101810007A818B819C8120E03AEC4AE95BE30E946B
:10182000A2389B01AC016D817E818F819885620F0A
:10183000731F841F951F28EA3BE246E850E00E9490
:10184000E8388091C1089091C208280F391FC9015A
:1018500028960FB6F894DEBF0FBECDBFCF91DF91B3
:101860001F910F91FF90EF90DF90CF90BF90AF90BE
:101870009F908F9008958091530A0E945C278091D9
:10188000AF0A0E945C2721E030E040E050E0CA014E
:10189000B9010090AF0A04C0660F771F881F991F17
:1018A0000A94D2F70090530A04C0220F331F441F3A
:1018B000551F0A94D2F7622B732B842B952B0E9411
:1018C000C52981E008958091530A0E945C27809188
:1018D0008605882379F461E070E080E090E0009074
:1018E000530A04C0660F771F881F991F0A94D2F706
:1018F0000E94C52981E008959F92AF92BF92CF9236
:10190000DF92EF92FF920F931F93982E8091AF0A70
:101910000E945C27A1E0EA2EF12C012D112D092C4B
:1019200004C0EE0CFF1C001F111F0A94D2F7F1E057
:10193000AF2EB12CC12CD12C0DC0C601B501009029
:10194000AF0A04C0660F771F881F991F0A94D2F749
:101950000E94C52981E2981629F480918804882381
:1019600061F710C08091960390919703A09198031E
:10197000B09199038E219F21A023B1230097A10547
:10198000B105D9F681E01F910F91FF90EF90DF90A4
:10199000CF90BF90AF909F9008951F93142F403128
:1019A00008F050C0603208F04DC0E62F21E030E072
:1019B00040E050E0062E04C0220F331F441F551F85
:1019C0000A94D2F78823A9F480917E0590917F052F
:1019D000A0918005B0918105822B932BA42BB52B70
:1019E00080937E0590937F05A0938005B093810539
:1019F00014C08091C2039091C303A091C403B0911D
:101A0000C503822B932BA42BB52B8093C2039093F9
:101A1000C303A093C403B093C503669570E0E0FDD3
:101A200006C0FB01E158F54F8081807F07C0FB01B4
:101A3000E158F54F80818F701295107F812B808344
:101A400081E001C08FEF1F910895982F803210F030
:101A50008FEF08958695E82FF0E090FD05C0E158DE
:101A6000F54F80818F700895E158F54F8081829500
:101A70008F700895782F603210F08FEF0895E62F61
:101A800081E090E0062E02C0880F991F0A94E2F7C9
:101A90009C01442737FD4095542F20953095409563
:101AA00050957723A9F480917E0590917F05A091B0
:101AB0008005B091810582239323A423B5238093CD
:101AC0007E0590937F05A0938005B093810514C097
:101AD0008091C2039091C303A091C403B091C50348
:101AE00082239323A423B5238093C2039093C3033B
:101AF000A093C403B093C503669570E0E0FD06C0F3
:101B0000FB01E158F54F8081807F05C0FB01E15862
:101B1000F54F80818F708083089581E094E09093E9
:101B2000610A8093600A9093630A8093620A90939B
:101B3000650A8093640A9093670A8093660A089501
:101B40009C018091600A9091610A9F778150944036
:101B500018F080E090E022C08091620A9091630AC0
:101B60009F778150944018F081E090E017C08091F9
:101B7000640A9091650A9F778150944018F082E042
:101B800090E00CC08091660A9091670A9F7781501F
:101B9000944010F48FEF089583E090E0FC01EE0F85
:101BA000FF1FE05AF54F31832083662311F481E053
:101BB000089530683183208381E008959C018091ED
:101BC000600A9091610A9F778217930719F4E0E009
:101BD000F0E020C08091620A9091630A9F7782179B
:101BE000930719F4E1E0F0E015C08091640A909148
:101BF000650A9F778217930719F4E2E0F0E00AC0C4
:101C00008091660A9091670A9F778217930751F433
:101C1000E3E0F0E0EE0FFF1FE05AF54F81E094E0C3
:101C2000918380830895AC012091600A3091610A0C
:101C3000B9017F7768177907E9F02091620A30913E
:101C4000630AC9019F7784179507A1F02091640A60
:101C50003091650AC9019F778417950759F0209143
:101C6000660A3091670AC9019F778417950711F0BA
:101C700080E008952150304880F56417750719F405
:101C8000E0E0F0E020C08091620A9091630A9F77C3
:101C90008417950719F4E1E0F0E015C08091640A1B
:101CA0009091650A9F778417950719F4E2E0F0E0B8
:101CB0000AC08091660A9091670A9F7784179507FA
:101CC00061F4E3E0F0E0EE0FFF1FE05AF54F81E032
:101CD00094E09183808381E0089581E00895E0E6B7
:101CE000FAE041E054E0208131813F7764E0203028
:101CF000360748F4281B390B1216130624F4241750
:101D000035070CF4A90132962AE0E836F20759F7B4
:101D100064E04130560711F440E050E0CA010895F4
:101D2000EFE8FAE011928AE0EF3AF807D9F7089560
:101D30000F931F93CF93DF938C01AFE8BAE0C1E01C
:101D4000D4E060E070E0862F8695E82FF0E060FD3B
:101D500005C0E158F54F80818F7005C0E158F54FFF
:101D6000808182958F70882361F18150EC91882366
:101D700011F451E00EC040E052E0282F30E0215035
:101D8000304002C0550F4F5F842F90E082179307B9
:101D9000CCF32E2F30E045E0220F331F4A95E1F7B8
:101DA000260F371F0217130710F0E50FF2CFEC9341
:101DB000A901401B510B4C175D0718F4215034400A
:101DC00008F0AE016F5F7F4F11966032710511F020
:101DD000EA01B9CF84E04130580711F440E050E007
:101DE000CA01DF91CF911F910F910895482F66236B
:101DF00011F431E00FC0382F20E070E061507040E6
:101E000004C0349F302D11242F5F822F90E086175D
:101E10009707BCF3832F089520916E0A30916F0AC3
:101E2000AC01421B530B5093790A4093780A90936C
:101E30006F0A80936E0A08958091780A9091790ACA
:101E40000895E0E7FAE08FEF81939AE0E837F90729
:101E5000D9F780934B0A10926B0A10926F0A109276
:101E60006E0A0895282F269525758575280F922FBF
:101E70009695969593732373920F892F82958F7001
:101E80009F70890F0895E0E7FAE020E08191982F94
:101E9000969595758575980F892F86958695837388
:101EA0009373890F982F92959F708F70980F290FB9
:101EB0008AE0E837F80751F7822F089580914B0A9E
:101EC000982F969595758575980F892F8695869587
:101ED00083739373890F982F9F7082958F70890FEA
:101EE000089540916B0AE42FE695E695E695F0E0BB
:101EF000E059F54F842F90E0809590958770907011
:101F000021E030E002C0220F331F8A95E2F7808182
:101F1000822B80834F5F40936B0A413410F0109204
:101F20006B0A089540916B0AE42FE695E695E695D5
:101F3000F0E0E059F54F242F30E0209530952770E0
:101F4000307081E090E002C0880F991F2A95E2F777
:101F500080952081822380834F5F40936B0A4134B8
:101F600010F010926B0A0895883010F080E0089508
:101F7000E82FF0E0EA5AF54F8081089540917D0AFC
:101F8000E42FE695E695E695F0E0A42FB0E0E55B5A
:101F9000F54FCD01809590958770907021E030E0ED
:101FA00002C0220F331F8A95E2F78081822B808343
:101FB000AA5AB54F1C924F5F40937D0A493010F0EA
:101FC00010927D0A089560917D0AE62FE695E695C8
:101FD000E695F0E0A62FB0E0E55BF54FAD0140954A
:101FE00050954770507021E030E002C0220F331F3F
:101FF0004A95E2F72095908129232083AA5AB54F6C
:102000008C936F5F60937D0A693010F010927D0AA7
:102010000895EAE7F0E083E08083ACE7B0E080E495
:102020008C938081806880831092B10A8C91807E2D
:102030008C939C918C91807E892B8C93089588EC55
:1020400090E00E945D33089580917A0080648093CF
:102050007A0080917A0084FFFCCF88EC90E00E94A7
:102060005D332091780030E040917900942F80E03A
:10207000282B392BC9010895BF92CF92DF92EF929E
:10208000FF920F931F93DF93CF9300D0CDB7DEB7AE
:102090000E94CB137C01009711F00E946A29159AC7
:1020A000DD249BE1B92E8BE5C82E8D2D806290E05A
:1020B0009A8389834098BEBC0DB407FEFDCF898109
:1020C0009A819EBD0DB407FEFDCF89819A818EBD98
:1020D0000DB407FEFDCF409A82E090E00E945D3390
:1020E0004098CEBC0DB407FEFDCF1EBC0DB407FE5C
:1020F000FDCF8EB5182F00E01A8309831EBC0DB4E6
:1021000007FEFDCF89819A812EB530E0282B392B2F
:102110003A832983409A89819A8186FD04C0D394A9
:102120002FE1D21611F6E114F10419F0C7010E9453
:102130001728DD20B9F40E9424109A8389838981AD
:102140009A818F3A910530F089819A818E5A904018
:102150009A83898389819A818A549140C0F48AE460
:1021600091E013C02D2D30E083E89FEFAC01249F58
:10217000C001259F900D349F900D1124885D9C4DCA
:102180006BE170E00E94D538CB019A838983298165
:102190003A81C9010F900F90CF91DF911F910F915C
:1021A000FF90EF90DF90CF90BF900895CF92DF9295
:1021B000EF92FF920F931F93CF93DF93382F7A0103
:1021C000C22E823009F49FC0833030F4882371F02E
:1021D000813009F0F1C028C0843009F49EC08430F9
:1021E00008F495C0853009F0E7C047C080E880BB9F
:1021F0008F9A83E080937A0080E480937C008091C2
:102200007A00806880937A001092B10A80917C00F5
:10221000807E80937C0090917C0080917C00807E09
:10222000892B80937C0070C08091B00A813009F4C2
:10223000C9C03093B00A70E060FF13C08F9810924D
:10224000B10A80917C00807E80937C0090917C001C
:1022500080917C00807E892B80937C0088EE93E0C7
:102260007EC0CB0186709070892B09F0ABC067707F
:102270007070672B09F4A6C074C0822F8150823021
:1022800008F09EC09091B10A892F8150863018F4D1
:102290000E94241024C0992331F40E943C10F2E0E3
:1022A000CF1629F51FC0973059F501E014E0C0E0C2
:1022B000D0E0DD240E9424108017910708F48C01DF
:1022C000C817D90708F4EC018DE790E00E945D3350
:1022D000D394F0E4DF1671F7CE01801B910B22E05E
:1022E000C21629F4F7018083918381E00AC0F1E0EE
:1022F000CF1631F49695879596958795F70180834B
:1023000080E08F5F60C08F9A1092B00A2AC061305F
:1023100009F058C08091B10A56C0613009F052C02E
:10232000F7E02F1701F52093B10A80917C008F7799
:1023300080937C0080917C00806480937C008091FD
:102340007C00807E80937C0090917C0080917C005A
:102350009360807E982B90937C0088EC90E00E94A4
:102360005D3381E030C027E02C1520F481E00E942D
:10237000E42428C0C092B10A81E0C81649F48091D3
:102380007C008F7780937C0080917C00806403C008
:1023900080917C00806C80937C0080917C00807EAA
:1023A00080937C0090917C0080917C00807E892BC2
:1023B0008C2980937C00D1CF8CE060E00E94A7251F
:1023C00080E001C08FEFDF91CF911F910F91FF90BF
:1023D000EF90DF90CF90089580917A0208958091D8
:1023E000B80A9091B90A0E94CC3908959F92AF9291
:1023F000BF92CF92DF92EF92FF920F931F93CF93F2
:10240000DF93EC01962E0E94B721D82E8FEFD816BD
:1024100021F48AED91E00E94C1218D2D0E945C275C
:102420008F3F21F485EB91E00E94C12181E0E82EED
:10243000F12C012D112D04C0EE0CFF1C001F111FEB
:10244000DA94D2F708C080911D0D90911E0D0E9464
:10245000CC39813C29F081E00E946D1D882399F7D9
:10246000C801B7010E94C52980911D0D90911E0DD4
:102470000E94CC39C82E81ECC81669F78091B80A41
:102480009091B90A0E94CC39A82EDD24BB242FC01C
:1024900080911D0D90911E0D0E94CC39982F803C8B
:1024A00019F08B3DC9F408C0DD2059F18FE7B8223F
:1024B000CB1439F58D2D26C081E00E946D1D882337
:1024C00021F4C801B7010E94C5298091B80A9091F2
:1024D000B90A0E94CC39982FD91440F4DA1430F498
:1024E000FE01ED0DF11D9083D394B90EC92E81E04C
:1024F0000E946D1D882361F6C801B7010E94C5299D
:10250000F6CF8FEFDF91CF911F910F91FF90EF905A
:10251000DF90CF90BF90AF909F9008951F93182F9A
:102520002091B20A222369F030E088EE93E0AC01FA
:10253000249FC001259F900D349F900D11240E946F
:102540005D336091B30A7091B40A812F90E00E94CC
:102550000E3A1F910895FF920F931F93CF93DF932D
:10256000F82E192F062F613810F083E041C08091BA
:10257000B50A9091B60A0E946A298F3F31F484E22D
:1025800092E00E94C12181E033C081EC0E948E1252
:10259000802F0E948E128F2D912F9C01E90110E057
:1025A0000DC08881803C11F08B3D19F48BED0E94A9
:1025B0008E1288810E948E128991180F9E012F1908
:1025C000201778F3812F8F770E948E1280EC0E9463
:1025D0008E128091B50A9091B60A0E9417288F3FFB
:1025E00011F081E008C086EF91E00E94C12182E0F5
:1025F0000E94E4248FEFDF91CF911F910F91FF9004
:1026000008959093B90A8093B80A7093B40A6093BE
:10261000B30A4093B70A2093B20A81E06FEF0E9499
:1026200093279093B60A8093B50A8F5F9F4F31F43A
:102630000E94242B682F8FE00E94A72581E08093C1
:102640007A02089590E00B979C012B593E4B880F1E
:10265000991F880F991F280F391FF894409888E117
:102660008EBD0DB407FEFDCF3EBD0DB407FEFDCF00
:102670002EBD0DB407FEFDCF409A78940895F894CE
:1026800040981EBC0DB407FEFDCF8EB5409A7894DD
:1026900086FFF5CF08958091CF0A0895DC01409818
:1026A00089EC8EBD0DB407FEFDCF80E88EBD0DB464
:1026B00007FEFDCF92E09150FD01E90FF11D8081F1
:1026C0008EBD0DB407FEFDCF9923A9F7409A40981F
:1026D0008BEC8EBD0DB407FEFDCF80E88EBD0DB432
:1026E00007FEFDCF92E09150FD01E90FF11D8281BF
:1026F0008EBD0DB407FEFDCF9923A9F7409A8C91AA
:102700008093D00A11968C9111978093D10A1296DA
:102710008C9112978093D20A13968C918093D30A4E
:102720000895409889E18EBD0DB407FEFDCF83E08A
:102730008EBD0DB407FEFDCF86E08EBD0DB407FE45
:10274000FDCF409A40988AE18EBD0DB407FEFDCFC3
:102750008EE08EBD0DB407FEFDCF8EE08EBD0DB4B4
:1027600007FEFDCF409A81E08093C00A089540980B
:1027700089E18EBD0DB407FEFDCF81E08EBD0DB4A5
:1027800007FEFDCF84EC8EBD0DB407FEFDCF409A51
:102790001092C00A08958091BE0A9091BF0A0895D0
:1027A0002091C10A3091C20A38603093C20A209346
:1027B000C10A409881E18EBD0DB407FEFDCF3EBD3C
:1027C0000DB407FEFDCF2EBD0DB407FEFDCF409A20
:1027D00008952091C10A3091C20A377F3093C20A0E
:1027E0002093C10A409881E18EBD0DB407FEFDCF54
:1027F0003EBD0DB407FEFDCF2EBD0DB407FEFDCFCF
:10280000409A089581E08093CE0A2091C10A3091C8
:10281000C20A20613093C20A2093C10A409881E124
:102820008EBD0DB407FEFDCF3EBD0DB407FEFDCF3E
:102830002EBD0DB407FEFDCF409A08951092CE0A2A
:102840002091C10A3091C20A2F7E3093C20A209390
:10285000C10A409881E18EBD0DB407FEFDCF3EBD9B
:102860000DB407FEFDCF2EBD0DB407FEFDCF409A7F
:10287000089589B190E026E0969587952A95E1F72D
:10288000817008958CB1881F8827881F089589B1A9
:1028900090E036E0969587953A95E1F78170089536
:1028A0008091D40A882321F08091D40A1092D40A0E
:1028B0000895409888E08EBD0DB407FEFDCF409A84
:1028C000409888E08EBD0DB407FEFDCF409A089574
:1028D0008091BE0A9091BF0A0E946A29409886E0C2
:1028E0008EBD0DB407FEFDCF409A8091BE0A909137
:1028F000BF0A0E94172808958091BE0A9091BF0ACE
:102900000E946A29409884E08EBD0DB407FEFDCF79
:10291000409A8091BE0A9091BF0A0E94172808959C
:102920008091BE0A9091BF0A0E946A29409886E071
:102930008EBD0DB407FEFDCF409A409882E18EBD5A
:102940000DB407FEFDCF85E08EBD0DB407FEFDCFB3
:102950001EBC0DB407FEFDCF409A40988EE28EBD9E
:102960000DB407FEFDCF1EBC0DB407FEFDCF1EBC8F
:102970000DB407FEFDCF409A0E9459148091BE0A03
:102980009091BF0A0E94172808958091BE0A9091E5
:10299000BF0A0E946A29409886E08EBD0DB407FEEA
:1029A000FDCF409A409882E18EBD0DB407FEFDCF69
:1029B00085E08EBD0DB407FEFDCF88E08EBD0DB461
:1029C00007FEFDCF409A40988EE28EBD0DB407FE03
:1029D000FDCF88E18EBD0DB407FEFDCF1EBC0DB44A
:1029E00007FEFDCF409A0E9459148091BE0A909133
:1029F000BF0A0E94172808950F931F93082F8091F4
:102A0000BE0A9091BF0A0E946A29112707FD1095FE
:102A1000302F22272068409883E18EBD0DB407FE39
:102A2000FDCF3EBD0DB407FEFDCF2EBD0DB407FE9C
:102A3000FDCF409A8091BE0A9091BF0A0E9417284C
:102A40001F910F910895DF93CF9300D000D00F9284
:102A5000CDB7DEB78091BE0A9091BF0A0E946A2965
:102A6000679B25C21092CF0A679B24C0319922C070
:102A700040988FE78EBD0DB407FEFDCF1EBC0DB490
:102A800007FEFDCF8EB5409A409888E08EBD0DB40C
:102A900007FEFDCF409A409888E08EBD0DB407FE3A
:102AA000FDCF409A8091BE0A9091BF0A0E941728DC
:102AB0008FEF04C240988FE78EBD0DB407FEFDCFA7
:102AC0001EBC0DB407FEFDCF4EB5409A4F7711F5F1
:102AD00040988FE78EBD0DB407FEFDCF1EBC0DB430
:102AE00007FEFDCF8EB5409A409888E08EBD0DB4AC
:102AF00007FEFDCF409A409888E08EBD0DB407FEDA
:102B0000FDCF409A8091BE0A9091BF0A0E9417287B
:102B10008EEFD4C145308CF0E091C30AF091C40A25
:102B2000242F332727FD30952B503040848199275F
:102B300087FD909582179307DCF540988FE78EBD4F
:102B40000DB407FEFDCF50E0242F332727FD30952D
:102B500005C01EBC0DB407FEFDCF5F5F852F90E062
:102B60008217930714F43199F4CF409A40988FE775
:102B70008EBD0DB407FEFDCF1EBC0DB407FEFDCF0C
:102B80008EB5409A409888E08EBD0DB407FEFDCF0B
:102B9000409A409888E08EBD0DB407FEFDCF409A64
:102BA0008091BE0A9091BF0A0E9417288DEF86C1BE
:102BB000E091C30AF091C40A4C50438340988FE7D8
:102BC0008EBD0DB407FEFDCFFE0132969F012E5F34
:102BD0003F4F1EBC0DB407FEFDCF8EB58193E217AB
:102BE000F307B9F7409AE091C30AF091C40A8A81C9
:102BF0009B8155E0969587955A95E1F7817087837B
:102C000040988FE78EBD0DB407FEFDCF1EBC0DB4FE
:102C100007FEFDCFE091C30AF091C40A8EB5808310
:102C2000409A40988FE78EBD0DB407FEFDCF80E03F
:102C300007C01EBC0DB407FEFDCF8F5F843011F0BE
:102C40003199F7CF409A40988FE78EBD0DB407FEBB
:102C5000FDCF20E030E01EBC0DB407FEFDCFE091BB
:102C6000C30AF091C40A8EB5E20FF31F81832F5F70
:102C70003F4F2230310579F7409A8A8183FF56C051
:102C800040988FE78EBD0DB407FEFDCFEAEBFAE06A
:102C90001EBC0DB407FEFDCF8EB581938AE0EE3BDE
:102CA000F807B1F7409A409889E98EBD0DB407FE48
:102CB000FDCF80E88EBD0DB407FEFDCF92E09150B0
:102CC000E92FF0E0E654F54F80818EBD0DB407FE8C
:102CD000FDCF9923A1F7409A40988BE98EBD0DB4A2
:102CE00007FEFDCF80E88EBD0DB407FEFDCF92E05C
:102CF0009150E92FF0E0E454F54F80818EBD0DB482
:102D000007FEFDCF9923A1F7409A40988CE08EBD35
:102D10000DB407FEFDCF409A81E08093CF0AE09189
:102D2000C30AF091C40A83818450838340988FE75B
:102D30008EBD0DB407FEFDCF40E010C01EBC0DB42B
:102D400007FEFDCFE091C30AF091C40A8EB505805D
:102D5000F681E02DE40FF11D80834F5FE091C30AFF
:102D6000F091C40A242F30E08381992787FD909544
:102D7000281739071CF3409A40988FE78EBD0DB491
:102D800007FEFDCF1EBC0DB407FEFDCF9EB5409AD9
:102D900040988FE78EBD0DB407FEFDCF9983FE01ED
:102DA00034969E012A5F3F4F1EBC0DB407FEFDCF37
:102DB0008EB58193E217F307B9F7409AE091C30A01
:102DC000F091C40A8C81808750E040E00CC0E09113
:102DD000C30AF091C40A0580F681E02DE20FF31FCB
:102DE0008081580F4F5FE091C30AF091C40A242FED
:102DF00030E08381992787FD9095281739073CF3A8
:102E00008981581711F140988FE78EBD0DB407FEE8
:102E1000FDCF1EBC0DB407FEFDCF8EB5409A409885
:102E200088E08EBD0DB407FEFDCF409A409888E043
:102E30008EBD0DB407FEFDCF409A8091BE0A9091E1
:102E4000BF0A0E9417288CEF39C08D8187FF0DC003
:102E50008091D40A8F5F8093D40A8091BE0A9091AA
:102E6000BF0A0E94172881E029C040988FE78EBDD5
:102E70000DB407FEFDCF1EBC0DB407FEFDCF8EB511
:102E8000409A409888E08EBD0DB407FEFDCF409A71
:102E9000409888E08EBD0DB407FEFDCF409A80912A
:102EA000BE0A9091BF0A0E9417288BEF07C080913D
:102EB000BE0A9091BF0A0E94172880E00F900F90E1
:102EC0000F900F900F90CF91DF9108958091BE0ADF
:102ED0009091BF0A0E946A291092CB0A409886E01E
:102EE0008EBD0DB407FEFDCF409A1092D40A80919A
:102EF000BE0A9091BF0A0E94172808958091BE0AC9
:102F00009091BF0A0E946A2981E08093CB0A409881
:102F100083E08EBD0DB407FEFDCF409A409888E057
:102F20008EBD0DB407FEFDCF409A1092D40A809159
:102F3000BE0A9091BF0A0E94172808958091BE0A88
:102F40009091BF0A0E946A2981E08093CB0A409841
:102F500083E08EBD0DB407FEFDCF409A409888E017
:102F60008EBD0DB407FEFDCF409A1092D40A809119
:102F7000BE0A9091BF0A0E94172808951F93182F28
:102F80008091BE0A9091BF0A0E946A29212F30E0E9
:102F90002F713070206E306A409885E18EBD0DB47F
:102FA00007FEFDCF3EBD0DB407FEFDCF2EBD0DB417
:102FB00007FEFDCF409A8091BE0A9091BF0A0E9401
:102FC00017281F910895FF920F931F93DF93CF93BC
:102FD00000D000D0CDB7DEB78C018091BE0A9091B1
:102FE000BF0A0E946A294091C00A442339F04098E0
:102FF0008DE08EBD0DB407FEFDCF409A1A82D80138
:1030000012962C91622F772767FD709530E00CC0E7
:10301000D8011396ED91FC911497E80FF91F8A815E
:103020009081890F8A833F5F832F90E086179707EF
:103030007CF3245F29832C50442311F0205F2983E3
:103040006799FECF4E99FCCFF894409889E08EBDE9
:103050000DB407FEFDCF409A409889E08EBD0DB4B7
:1030600007FEFDCF409A40988EE38EBD0DB407FE5B
:10307000FDCF89818EBD0DB407FEFDCF409A81E45E
:1030800098E89C838B838091CE0A882321F081E687
:1030900098E89C838B83442329F08B819C818860F2
:1030A0009C838B8340988EE38EBD0DB407FEFDCFCD
:1030B000FE0133969E012B5F3F4F80818EBD0DB484
:1030C00007FEFDCF3196E217F307B9F7409A409813
:1030D0008EE38EBD0DB407FEFDCF8091C50A8EBD77
:1030E0000DB407FEFDCF409A40988EE38EBD0DB41F
:1030F00007FEFDCF20E030E0F901ED53F54F84816C
:103100008EBD0DB407FEFDCF2F5F3F4F223031053E
:1031100099F7409A40988EE38EBD0DB407FEFDCF1F
:10312000F80198012E5F3F4F80818EBD0DB407FEE0
:10313000FDCF3196E217F307B9F7409A40988EE336
:103140008EBD0DB407FEFDCF20E030E0F901ED5358
:10315000F54F86818EBD0DB407FEFDCF2F5F3F4F2B
:103160002230310599F7409A442399F040988EE334
:103170008EBD0DB407FEFDCFE0EDFAE080818EBD7F
:103180000DB407FEFDCF3196BAE0E43DFB07B1F781
:10319000409A40988EE38EBD0DB407FEFDCF20E02F
:1031A0000DC0D8011396ED91FC911497E80FF91F0B
:1031B00080818EBD0DB407FEFDCF2F5F822F90E082
:1031C0008617970774F3409A40988EE38EBD0DB42E
:1031D00007FEFDCF8A818EBD0DB407FEFDCF409A5C
:1031E000F80185818823B9F18091CB0A882339F4CD
:1031F000409883E08EBD0DB407FEFDCF409A409805
:103200001EBC0DB407FEFDCF8EB5409A81FFF7CFEF
:1032100010E065E0F62E4098FEBC0DB407FEFDCF31
:10322000409A40981EBC0DB407FEFDCF0EB5409AE3
:103230001F5F153649F478948091BE0A9091BF0AB9
:103240000E94172810E04EC084E690E00E942622DB
:1032500003FFE1CF07C0409884E08EBD0DB407FEA8
:10326000FDCF409A78944E9BFECF4E99FECF809131
:10327000CE0A882391F084EA92E00E942622319BB4
:103280000EC040988FE78EBD0DB407FEFDCF1EBC6B
:103290000DB407FEFDCF8EB5409A11E00FC04098E7
:1032A00088E08EBD0DB407FEFDCF409A409888E0BF
:1032B0008EBD0DB407FEFDCF409A10E0F894409803
:1032C00086E08EBD0DB407FEFDCF409A78948091C4
:1032D000C50A8F5F8093C50A8091BE0A9091BF0A8C
:1032E0000E941728812F0F900F900F900F90CF9171
:1032F000DF911F910F91FF900895CF92DF92EF928F
:10330000FF920F931F93DF93CF9300D000D0CDB7E0
:10331000DEB77C018B016A018091BE0A9091BF0AE1
:103320000E946A290E948334409888E08EBD0DB4C3
:1033300007FEFDCF409A409888E08EBD0DB407FE91
:10334000FDCF409A6799FECF4E99FCCFF8944098F4
:1033500089E08EBD0DB407FEFDCF409A409889E00C
:103360008EBD0DB407FEFDCF409A1A82D70112968A
:103370003C91432F552747FD509520E00CC0D701C5
:103380001396ED91FC911497E80FF91F8A819081B3
:10339000890F8A832F5F822F90E0841795077CF333
:1033A000932F945F998340988EE38EBD0DB407FEF2
:1033B000FDCF9EBD0DB407FEFDCF409AF70186817B
:1033C000882319F481E498E802C081E698E89C8398
:1033D0008B8340988EE38EBD0DB407FEFDCFFE01BA
:1033E00033969E012B5F3F4F80818EBD0DB407FE4B
:1033F000FDCF3196E217F307B9F7409A40988EE374
:103400008EBD0DB407FEFDCF8091C50A8EBD0DB4F3
:1034100007FEFDCF409A40988EE38EBD0DB407FEA7
:10342000FDCF20E030E0F901ED53F54F84818EBDF2
:103430000DB407FEFDCF2F5F3F4F2230310599F7C6
:10344000409A40988EE38EBD0DB407FEFDCFF70184
:1034500097012E5F3F4F80818EBD0DB407FEFDCFDB
:103460003196E217F307B9F7409A40988EE38EBD84
:103470000DB407FEFDCF20E030E0F901ED53F54F2C
:1034800086818EBD0DB407FEFDCF2F5F3F4F2230EA
:10349000310599F7409AC801B6010E94A833D701B7
:1034A00015968C918823B9F18091CB0A882339F441
:1034B000409883E08EBD0DB407FEFDCF409A409842
:1034C0001EBC0DB407FEFDCF8EB5409A81FFF7CF2D
:1034D00010E075E0D72E4098DEBC0DB407FEFDCF9E
:1034E000409A40981EBC0DB407FEFDCF0EB5409A21
:1034F0001F5F153649F478948091BE0A9091BF0AF7
:103500000E94172880E070C084E690E00E94262286
:1035100003FFE1CF07C0409884E08EBD0DB407FEE5
:10352000FDCF409A40988EE38EBD0DB407FEFDCFCF
:10353000F7018281482F552747FD509520E00DC0A7
:10354000D7011396ED91FC911497E80FF91F808134
:103550008EBD0DB407FEFDCF2F5F822F90E0841744
:10356000950774F3409A40988EE38EBD0DB407FE24
:10357000FDCF8A818EBD0DB407FEFDCF409A4E9BD4
:10358000FECFF8944E99FECF409888E08EBD0DB4E2
:1035900007FEFDCF409A409888E08EBD0DB407FE2F
:1035A000FDCF409A409889E08EBD0DB407FEFDCF57
:1035B000409A409889E08EBD0DB407FEFDCF409A39
:1035C000409886E08EBD0DB407FEFDCF409A7894FA
:1035D0008091C50A8F5F8093C50A8091BE0A909141
:1035E000BF0A0E94172881E00F900F900F900F9054
:1035F000CF91DF911F910F91FF90EF90DF90CF90CF
:103600000895DF93CF9300D0CDB7DEB79A83898337
:103610009093CA0A8093C90A84EF91E00E945D33B7
:1036200040988AEE8EBD0DB407FEFDCF80E88EBDBA
:103630000DB407FEFDCFFE0131969E012D5F3F4F79
:1036400080818EBD0DB407FEFDCF3196E217F307E2
:10365000B9F7409A84EF91E00E945D330F900F908C
:10366000CF91DF9108954F925F926F927F928F92E8
:103670009F92AF92BF92CF92DF92EF92FF920F9301
:103680001F93DF93CF9300D0CDB7DEB7182F092F4C
:1036900084E690E00E945D33212F302FC9016C0138
:1036A00000E011E03E010894611C711CB3E04B2E58
:1036B000512C4C0E5D1EF601F080EE24818190E0CD
:1036C0008E299F299A83898384E690E00E945D3346
:1036D0004098802F80688EBD0DB407FEFDCFC801D5
:1036E00095958795807C8EBD0DB407FEFDCF430177
:1036F0005301F50180818EBD0DB407FEFDCF089406
:10370000A11CB11C4A145B04A1F7409A0894C11C87
:10371000D11C0E5F1F4FF1E000311F0761F684E6F8
:1037200090E00E945D3320E131E040E451E01A82F4
:1037300019824098842F80688EBD0DB407FEFDCF9E
:10374000CA0195958795807C8EBD0DB407FEFDCF8F
:10375000F30180818EBD0DB407FEFDCF3196EA15D1
:10376000FB05B9F7409A4098822F80688EBD0DB452
:1037700007FEFDCFC90195958795807C8EBD0DB460
:1037800007FEFDCFF30180818EBD0DB407FEFDCF96
:103790003196EA15FB05B9F7409A2E5F3F4F4E5F11
:1037A0005F4F81E02E31380711F681E090E09A8377
:1037B000898340988EEC8EBD0DB407FEFDCF80E866
:1037C0008EBD0DB407FEFDCFF30180818EBD0DB41B
:1037D00007FEFDCF31964E165F06B9F7409A409826
:1037E0008EE98EBD0DB407FEFDCF80E88EBD0DB411
:1037F00007FEFDCFF40180818EBD0DB407FEFDCF25
:103800000894811C911C48145904A1F7409A0F9008
:103810000F90CF91DF911F910F91FF90EF90DF906C
:10382000CF90BF90AF909F908F907F906F905F9060
:103830004F9008951F93CF93DF93EC01162F809143
:10384000BE0A9091BF0A0E946A29409888E08EBD06
:103850000DB407FEFDCF409A409888E08EBD0DB4B0
:1038600007FEFDCF409A812F0E942213D093C40AF5
:10387000C093C30A8091BE0A9091BF0A0E94172884
:10388000DF91CF911F9108951F93182F8091BE0A49
:103890009091BF0A0E946A29812F0E942213809171
:1038A000BE0A9091BF0A0E9417281F910895DF92C7
:1038B000EF92FF920F931F93DF93CF9300D0CDB77A
:1038C000DEB78C01D62E5A834983790181E064E109
:1038D0000E9493279093BF0A8093BE0A892B31F4EC
:1038E0000E94242B682F8FE00E94A7258091BE0A9A
:1038F0009091BF0A0E946A298F3F21F48EE792E0DF
:103900000E94C121159A88EE93E00E942622169803
:1039100081E090E00E942622169A84E690E00E94C0
:103920002622F894409881E08EBD0DB407FEFDCFAD
:10393000409A82EE92E09093C20A8093C10A409826
:1039400081E18EBD0DB407FEFDCF82E08EBD0DB4CA
:1039500007FEFDCF82EE8EBD0DB407FEFDCF409A6F
:10396000409882E18EBD0DB407FEFDCF85E08EBD8F
:103970000DB407FEFDCF1EBC0DB407FEFDCF409A6F
:1039800040988CE18EBD0DB407FEFDCF1EBC0DB47A
:1039900007FEFDCF8FE78EBD0DB407FEFDCF409A29
:1039A000409889E18EBD0DB407FEFDCF81E08EBD4C
:1039B0000DB407FEFDCF84EC8EBD0DB407FEFDCF28
:1039C000409A409887E18EBD0DB407FEFDCF8AE195
:1039D0008EBD0DB407FEFDCF86E58EBD0DB407FE8E
:1039E000FDCF409A84EF91E00E945D33409888EECD
:1039F0008EBD0DB407FEFDCF80E88EBD0DB407FE71
:103A0000FDCFFE0131969E012D5F3F4F80818EBD1F
:103A10000DB407FEFDCF3196E217F307B9F7409AD0
:103A200084EF91E00E945D3378948D2D0E942213E3
:103A300078941093C40A0093C30A89819A81909361
:103A4000C80A8093C70AF092CA0AE092C90A109283
:103A5000C50A1092CB0A0E943F138091BE0A909132
:103A6000BF0A0E9417288F3F39F481E592E00E9437
:103A7000C12182E00E94E4241092CE0A1092C00A72
:103A80001092CF0A0F900F90CF91DF911F910F915D
:103A9000FF90EF90DF9008959091570B8091D50A99
:103AA000981771F0E92FF0E0EA52F54FE081892F85
:103AB0008F5F8093570B803871F41092570B0BC0B7
:103AC0008091C80087FFFCCF8091C8008F778093DA
:103AD000C800E091CE008E2F0895882331F4209104
:103AE000C000221F2227221F0BC0813011F020E0CE
:103AF00007C020E09091570B8091D50A981321E0E0
:103B0000822F089585B7806185BF86E084B987E0FC
:103B100085B991E097B998B98CE38DB98BE08AB9F2
:103B20008EE38EB988E781B980E482B980E58CBDE7
:103B30009DBD089585B7806185BF86E084B987E023
:103B400085B981E087B988B98CE38DB98BE08AB9F2
:103B50008EE38EB988E781B980E482B90895482F51
:103B60008F3F09F471C0282F30E027703070223069
:103B7000310589F12330310544F42115310589F0EF
:103B80002130310509F060C01AC02430310509F434
:103B90003EC0243031056CF12530310509F054C0A8
:103BA00044C022B146954695469581E090E002C01A
:103BB000880F991F4A95E2F7282B22B943C085B197
:103BC00046954695469502C0220F331F4A95E2F767
:103BD000822B85B937C028B146954695469581E038
:103BE00090E002C0880F991F4A95E2F7282B28B968
:103BF00029C02BB146954695469581E090E002C0DC
:103C0000880F991F4A95E2F7282B2BB91BC02EB1BC
:103C100046954695469581E090E002C0880F991F31
:103C20004A95E2F7282B2EB90DC021B3469546954B
:103C3000469581E090E002C0880F991F4A95E2F70F
:103C4000282B21BB81E008958FEF0895482F8F3FE7
:103C500009F478C0282F30E0277030702230310509
:103C6000A1F12330310544F42115310589F02130CB
:103C7000310509F067C01BC02430310509F443C089
:103C8000243031058CF12530310509F05BC04AC084
:103C900022B146954695469581E090E002C0880F96
:103CA000991F4A95E2F78095822382B949C095B160
:103CB00046954695469502C0220F331F4A95E2F776
:103CC000822F8095892385B93BC028B146954695BA
:103CD000469581E090E002C0880F991F4A95E2F76F
:103CE0008095822388B92CC02BB146954695469580
:103CF00081E090E002C0880F991F4A95E2F7809515
:103D000082238BB91DC02EB146954695469581E01C
:103D100090E002C0880F991F4A95E2F780958223B0
:103D20008EB90EC021B346954695469581E090E048
:103D300002C0880F991F4A95E2F78095822381BBC4
:103D400081E008958FEF0895282F8F3F69F190E06B
:103D50008770907082309105A9F0833091052CF422
:103D6000009761F0019701F50BC08430910571F067
:103D7000843091054CF00597B9F40AC080B109C0B0
:103D800083B107C086B105C089B103C08CB101C041
:103D90008FB190E026952695269502C0959587953A
:103DA0002A95E2F7817008958FEF0895282F8F3FAD
:103DB00009F4F6C0482F50E047705070423051056A
:103DC00009F459C04330510544F44115510591F0AF
:103DD0004130510509F0E4C032C04430510509F4C6
:103DE00094C0443051050CF46BC04530510509F0C6
:103DF000D7C0B0C080B1269526952695322F90E089
:103E0000022E02C0959587950A94E2F780FD0BC0BB
:103E100022B181E090E002C0880F991F3A95E2F745
:103E2000282B22B9BBC022B181E090E002C0880FEC
:103E3000991F3A95E2F78095822382B9AFC083B18A
:103E400026952695269590E0022E02C09595879599
:103E50000A94E2F7BA0102C0660F771F2A95E2F7CB
:103E600080FD03C085B1862B04C095B1862F809557
:103E7000892385B993C086B1269526952695322F3C
:103E800090E0022E02C0959587950A94E2F780FD96
:103E90000BC028B181E090E002C0880F991F3A95CD
:103EA000E2F7282B28B97AC028B181E090E002C05F
:103EB000880F991F3A95E2F78095822388B96EC0E2
:103EC00089B1269526952695322F90E0022E02C0C4
:103ED000959587950A94E2F780FD0BC02BB181E0A0
:103EE00090E002C0880F991F3A95E2F7282B2BB972
:103EF00055C02BB181E090E002C0880F991F3A9520
:103F0000E2F7809582238BB949C08CB1269526951E
:103F10002695322F90E0022E02C0959587950A943F
:103F2000E2F780FD0BC02EB181E090E002C0880F67
:103F3000991F3A95E2F7282B2EB930C02EB181E0B7
:103F400090E002C0880F991F3A95E2F7809582238E
:103F50008EB924C08FB1269526952695322F90E0F4
:103F6000022E02C0959587950A94E2F780FD0BC05A
:103F700021B381E090E002C0880F991F3A95E2F7E3
:103F8000282B21BB0BC021B381E090E002C0880F39
:103F9000991F3A95E2F78095822381BB81E00895CD
:103FA0008FEF0895482F8F3F09F4F5C090E0662306
:103FB00009F081C08770907082309105C9F183301B
:103FC00091053CF4009781F08130910509F0E3C040
:103FD0001EC08430910509F44BC084309105C4F1B2
:103FE000059709F0D8C054C031B14695469546951D
:103FF00081E090E002C0880F991F4A95E2F7282FD0
:104000002095232321B922B1822B82B9C2C024B1C9
:1040100046954695469502C0880F991F4A95E2F746
:10402000982F8095822384B985B1982B95B9B1C01A
:1040300037B146954695469581E090E002C0880FDD
:10404000991F4A95E2F7282F2095232327B92FC0DF
:104050003AB146954695469581E090E002C0880FBA
:10406000991F4A95E2F7282F209523232AB91FC0CC
:104070003DB146954695469581E090E002C0880F97
:10408000991F4A95E2F7282F209523232DB90FC0B9
:1040900030B346954695469581E090E002C0880F82
:1040A000991F4A95E2F7282F2095232320BB25B19D
:1040B000822B85B96EC09C0127703070223031058B
:1040C00089F12330310544F42115310589F021307F
:1040D000310509F060C01AC02430310509F43EC032
:1040E000243031056CF12530310509F054C044C04D
:1040F00021B146954695469581E090E002C0880F33
:10410000991F4A95E2F7282B21B943C084B14695FF
:104110004695469502C0220F331F4A95E2F7822B3F
:1041200084B937C027B146954695469581E090E021
:1041300002C0880F991F4A95E2F7282B27B929C09A
:104140002AB146954695469581E090E002C0880FD9
:10415000991F4A95E2F7282B2AB91BC02DB1469525
:104160004695469581E090E002C0880F991F4A95D8
:10417000E2F7282B2DB90DC020B3469546954695FC
:1041800081E090E002C0880F991F4A95E2F7282B42
:1041900020BB81E008958FEF0895882311F08FEF01
:1041A000089580B18095881F8827881F08950097FB
:1041B00011F484E109C08130910511F48CE104C04F
:1041C0008230910529F484E20E94D61E81E0089590
:1041D000039711F08FEF08958CE20E94D61E81E0C4
:1041E0000895009711F484E109C08130910511F41C
:1041F0008CE104C08230910529F484E20E94AF1D55
:1042000081E00895039711F08FEF08958CE20E94EA
:10421000AF1D81E00895009711F484E109C0813059
:10422000910511F48CE104C08230910529F484E2F7
:104230000E94261E81E00895039711F08FEF0895E4
:104240008CE20E94261E81E00895882319F085B72C
:104250008F7E02C085B7806185BF81E00895982F69
:104260008091C00085FFFCCF8091C0008F7D80933E
:10427000C0009093C6000895982F8091C80085FFD4
:10428000FCCF9093CE0008959093C5008093C40016
:1042900086E08093C200E1ECF0E080818B7F808338
:1042A000A0ECB0E08C9182608C93808188618083E7
:1042B00008959093CD008093CC0086E08093CA004F
:1042C000E9ECF0E080818B7F8083A8ECB0E08C91FA
:1042D00082608C9380818861808308958091C00082
:1042E00087FFFCCF8091C0008F778093C0008091C2
:1042F000C60008959093CD008093CC0086E0809313
:10430000CA008091C9008B7F8093C9008091C8004A
:1043100082608093C8008091C90088618093C90041
:104320008CE391E26CE47DE10E9480399093200D52
:1043300080931F0D8CE391E26CE47DE10E94803953
:1043400090931E0D80931D0D0E94D9268093560BCD
:104350008F3F19F48EE00E94AE251092570B1092F9
:10436000D50A8091C90080688093C9000895809122
:10437000560B8F3F19F48EE00E94AE258091560BAC
:104380000895CF93DF93EC0107C060911F0D7091EA
:10439000200D90E00E940E3AFE0121968491882320
:1043A000A1F7DF91CF9108951F920F920FB60F9250
:1043B0000BB60F9211242F933F934F935F936F93FC
:1043C0007F938F939F93AF93BF93EF93FF938091CE
:1043D000C9008F778093C9008091C80087FFFCCF08
:1043E0008091C8008F778093C8009091CE00809113
:1043F000D50AE82FF0E0EA52F54F90838F5F809363
:10440000D50A803811F41092D50A8091560B0E947B
:1044100071288091C8008F778093C8008091C9006F
:1044200080688093C900FF91EF91BF91AF919F91F8
:104430008F917F916F915F914F913F912F910F904D
:104440000BBE0F900FBE0F901F901895000000003C
:10445000000000000197D1F70895FC0187E090E08B
:1044600060810E941F3B81E008950F931F93CF93BB
:10447000DF938C01C8E0D0E0CE01F80161918F019B
:104480000E941F3B2196C831D105B1F781E0DF9131
:10449000CF911F910F910895FC0186E090E060811B
:1044A0000E941F3B81E008950E941F3B08950F93D7
:1044B0001F938C0187E090E00E94173BF8018083F6
:1044C00081E01F910F9108950F931F93CF93DF9376
:1044D0008C01C8E0D0E0CE010E94173BF801819327
:1044E0008F012196C831D105B1F781E0DF91CF91DD
:1044F0001F910F9108950F931F938C0186E090E018
:104500000E94173BF801808381E01F910F9108956D
:104510000F931F938C0185E090E00E94173BF801F8
:10452000808381E01F910F910895FF920F931F9355
:104530008C0180E090E00E94173BF801838381E0CA
:1045400090E00E94173BF801828382E090E00E9495
:10455000173BF801818383E090E00E94173BF82E1F
:10456000F801808384E090E00E94173BF80191817C
:104570002281920F9F0D2381920F891711F08FEFE7
:1045800001C081E01F910F91FF9008950E94173B99
:104590000895F894089578940895F894FFCF85E6E7
:1045A00090E008950E9460300895EF92FF920F937B
:1045B0001F93CF93DF93EC018B017A0189858230C1
:1045C00021F08091C40C888301C018828091C40CB2
:1045D0008A3020F087E060E00E94A725898582303C
:1045E00029F08091C40C8F5F8093C40C8091C40C1F
:1045F000882319F481E08093C40C8881992787FD72
:104600009095FC0145E0EE0FFF1F4A95E1F7E80F9A
:10461000F91FE65AF44F118300838881992787FD9B
:104620009095FC0135E0EE0FFF1F3A95E1F7E80F9A
:10463000F91FE65AF44F888582878881992787FD7C
:104640009095FC0125E0EE0FFF1F2A95E1F7E80F9A
:10465000F91FE65AF44F83E081872881822F99273A
:1046600087FD9095FC0105E0EE0FFF1F0A95E1F72D
:10467000E80FF91FE65AF44F20878881992787FDB4
:104680009095FC0115E0EE0FFF1F1A95E1F7E80F7A
:10469000F91FE65AF44F15820881112707FD10957E
:1046A0002B853C854D855E856F85788989899A89BA
:1046B0000E94A22EF801B5E0EE0FFF1FBA95E1F7B8
:1046C000E00FF11FE65AF44F948F838F0881112772
:1046D00007FD10952B8D3C8D4D8D5E8D6F8D78A1D6
:1046E00089A19AA10E94A22EF801A5E0EE0FFF1F5A
:1046F000AA95E1F7E00FF11FE65AF44F968B858BF0
:104700008881992787FD9095FC0175E0EE0FFF1FCA
:104710007A95E1F7E80FF91FE65AF44F85899689F3
:10472000238D348D820F931F908F878B08811127E3
:1047300007FD10952B893C894D895E896F89788D9D
:10474000898D9A8D0E94A22EF80165E0EE0FFF1F61
:104750006A95E1F7E00FF11FE65AF44F968F858FC7
:104760008881992787FD9095FC0155E0EE0FFF1F8A
:104770005A95E1F7E80FF91FE65AF44F858D968DAB
:10478000928F818F8881992787FD9095FC0145E064
:10479000EE0FFF1F4A95E1F7E80FF91FE65AF44FB5
:1047A00081E090E090A3878F8881992787FD90957D
:1047B000FC0135E0EE0FFF1F3A95E1F7E80FF91F16
:1047C000E65AF44FF382E2828881992787FD90951B
:1047D000FC0125E0EE0FFF1F2A95E1F7E80FF91F16
:1047E000E65AF44F81E08487DF91CF911F910F91BA
:1047F000FF90EF900895CF92DF92EF92FF920F9388
:104800001F93DF93CF930F92CDB7DEB772E6E72EFB
:104810007BE0F72E90E0F70100810F3FC1F062E6E8
:10482000C62E6BE0D62E10E0911751F0F601808174
:10483000081731F485E0602F99830E94A72599819C
:104840001F5F21E230E0C20ED31E1A3069F79F5F6E
:10485000E1E2F0E0EE0EFF1E9A30E9F60E94022A35
:10486000282F332727FD3095F90155E0EE0FFF1F64
:104870005A95E1F7E20FF31FE65AF44F3285309371
:10488000D70C21E28202C0011124865A944F9093E2
:10489000D60C8093D50C9093C70C8093C60C3093A4
:1048A000C80C0E9414370E94FE360E943737FFCF93
:1048B0000F931F93DF93CF93CDB7DEB7A3970FB6B8
:1048C000F894DEBF0FBECDBF0E94D9268093C50CE1
:1048D0008F3F21F48EE060E00E94A7250E9486367B
:1048E000882321F486E060E00E94A7251092C80C7E
:1048F0001092D60C1092D50C1092C70C1092C60CC8
:104900001092D70C1092D40CE6EAFCE08FEF808373
:104910008283818333962CE0E43CF207C1F7E2E620
:10492000FBE093E68FEF92838083B1962CE0EC3A24
:10493000F207C9F7E8EDFCE0CF0105969483838385
:10494000F783E683FC018DE0EA30F807A9F71092BF
:10495000DA0C1092D90C148213821092CB0C1092A4
:10496000CA0CF297F093590BE093580B8E010F5F2E
:104970001F4FC80165E470E30E94CF36C8016FE3A2
:1049800079E040E850E00E94193785E580933F09BF
:1049900019861C8E1D8E1E8E1F8E18A219A21AA299
:1049A0001BA291E0988782E08A879B87C8010E94BA
:1049B000162DA3960FB6F894DEBF0FBECDBFCF91D4
:1049C000DF911F910F910895E091D50CF091D60CD5
:1049D00084870895E091D50CF091D60C84850895D4
:1049E000DC01FB018091C008882329F0808380913D
:1049F0009A038C9381E008951F938091C0088823C7
:104A000011F41F9108950E94C9220E94C92286E6CE
:104A100094E00E94C12100D000D0EDB7FEB73196DE
:104A20008CE992E0ADB7BEB712969C938E93119726
:104A300080919A03828313820E943A3A0F900F90DA
:104A40000F900F9082E694E00E94C1218091C008EF
:104A5000843110F01092C0088091C00890E0FC01F1
:104A60003197E231F105F0F5EA59FF4FEE0FFF1FE4
:104A70000590F491E02D09948BE394E035C087E232
:104A800094E032C081E194E02FC086EF93E02CC027
:104A900080EE93E029C088EC93E026C085EB93E09C
:104AA00023C082EA93E020C084E893E01DC08FE534
:104AB00093E01AC083E593E017C088E393E014C045
:104AC00089E293E011C088E193E00EC084E093E0B6
:104AD0000BC084EE92E008C08CEC92E005C081EB44
:104AE00092E002C08AEA92E00E94C12160911F0D0B
:104AF0007091200D8DE090E00E940E3A60911F0DA4
:104B00007091200D8AE090E00E940E3A82E090E0E1
:104B10000E940B2183E090E00E94F12010E088EEDB
:104B200093E00E945D331F5F1436C9F783E090E085
:104B30000E940B2182E090E00E94F12010E088EEBC
:104B400093E00E945D331F5F1436C9F7DFCF809377
:104B5000C00860939A030E94FC2408958093C008C3
:104B6000E091D50CF091D60C808580939A030E9439
:104B7000FC240895992787FD9095FC0125E0EE0F10
:104B8000FF1F2A95E1F7E80FF91FE65AF44FA281BB
:104B9000B3818C91853521F085E58C938FEF089555
:104BA000808191818050924210F481E0089582E1E9
:104BB0000E94AE258FEF08956F927F928F929F9201
:104BC000AF92BF92CF92DF92EF92FF920F931F931B
:104BD000CF93DF9382E794E00E94C12100D000D000
:104BE0008FE992E0ADB7BEB712969C938E93119762
:104BF000E091D50CF091D60C8085992787FD909592
:104C000014969C938E9313970E943A3AE091D50C98
:104C1000F091D60C0281138188EA92E0EDB7FEB7DD
:104C200092838183148303830E943A3AEDB7FEB7DF
:104C3000319655EBC52E52E0D52EADB7BEB71296C4
:104C4000DC92CE921197D8018C91828313820E94BC
:104C50003A3A42ECE42E42E0F42EEDB7FEB7F2828F
:104C6000E182E091D50CF091D60C80819181ADB7B5
:104C7000BEB714969C938E9313970E943A3A0CEC0D
:104C800012E0EDB7FEB7128301838091D50C9091AD
:104C9000D60C948383830E943A3ACAE5DBE0AA24C7
:104CA000BB240F900F900F900F903CED632E32E0DD
:104CB000732E4601670178010A811B8100D000D064
:104CC00000D0EDB7FEB73196ADB7BEB712967C9265
:104CD0006E921197B382A282158304830E943A3A9E
:104CE0000F900F90EDB7FEB73196ADB7BEB71196E6
:104CF0008C92119712969C92D8018C918283138288
:104D00000E943A3AEDB7FEB7C182D282888199817A
:104D1000948383830E943A3AADB7BEB71196EC9262
:104D200011971296FC9212971496DC93CE931397D8
:104D30000E943A3A0894A11CB11CA1960F900F90C2
:104D40000F900F90BAE0AB16B10409F0B5CFDF9128
:104D5000CF911F910F91FF90EF90DF90CF90BF9078
:104D6000AF909F908F907F906F900895CF93DF9337
:104D7000E091D50CF091D60CC281D3818881853524
:104D800039F00E94DC2581E00E94AE2585E588830C
:104D9000E091D50CF091D60C8081918180509242A7
:104DA00028F00E94DC2582E10E94AE25DF91CF91A0
:104DB0000895409184045091850460918604709117
:104DC000870420E030E0DB01CA01022E04C0B69562
:104DD000A795979587950A94D2F781709070892B43
:104DE000D1F481E090E0A0E0B0E0022E04C0880F92
:104DF000991FAA1FBB1F0A94D2F7842B952BA62BB1
:104E0000B72B8093840490938504A0938604B09379
:104E10008704822F08952F5F3F4F2032310599F686
:104E20008FEF0895E091D50CF091D60C65857685CD
:104E3000878590890895EF92FF920F931F9321E049
:104E400030E040E050E004C0220F331F441F551FE4
:104E50008A95D2F7E091D50CF091D60CE584F684D2
:104E600007851089DA01C9018E219F21A023B12372
:104E70000097A105B10511F48FEF19C02095309569
:104E800040955095E222F32204231523E586F68609
:104E90000787108B81899289A389B4898223932300
:104EA000A423B523818B928BA38BB48B81E01F91BC
:104EB0000F91FF90EF900895682F772767FD709509
:104EC0008091840490918504A0918604B091870418
:104ED000062E04C0B695A795979587950A94D2F7A4
:104EE00081709070892B11F48FEF0895E091D50CAB
:104EF000F091D60C21E030E040E050E004C0220FF9
:104F0000331F441F551F6A95D2F785859685A7855F
:104F1000B089822B932BA42BB52B85879687A787E7
:104F2000B08B81E00895482F3091D40C393018F0BF
:104F300020E030E01FC0E6EAFCE020E080818F3F07
:104F400021F02F5F33962A30C9F7822F90E0FC01C1
:104F5000EE0FFF1FE80FF91FEA55F34F428340831E
:104F600061833F5F3093D40C83E0289F900111242C
:104F70002A55334FC901089526EA3CE040E08217E4
:104F8000930731F04F5F2D5F3F4F4A30C1F74FEF2E
:104F9000842F089526EA3CE040E08217930731F021
:104FA0004F5F2D5F3F4F4A30C1F71AC04A3011F4AE
:104FB00082E017C0842F992787FD9095FC01EE0FA2
:104FC000FF1FE80FF91FEA55F34F8FEF80838283AD
:104FD00081838091D40C81508093D40C81E008951A
:104FE00081E00E94E4248FEF089526EA3CE040E04F
:104FF0008217930731F04F5F2D5F3F4F4A30C1F763
:1050000011C04A3011F482E00EC0842F992787FD29
:105010009095FC01EE0FFF1FE80FF91FEA55F34FC3
:105020008281089581E00E94E4248FEF08951F9308
:10503000CF93DF9326EA3CE010E08217930731F02C
:105040001F5F2D5F3F4F1A30C1F746C01A3011F471
:1050500082E043C0812F992787FD9095EC01CC0F0A
:10506000DD1FC80FD91FCA55D34F9A818881981761
:1050700074F50E94C9228A818F5F8A83E091D50CE2
:10508000F091D60C1482E1E6FBE0212F332727FDB7
:105090003095432F532F63E08081823089F48285DD
:1050A0009385A485B58582179307A407B50741F4B6
:1050B00062831786168610821286138614861586DA
:1050C000B1968CE0EB3AF80739F70E94CB2281E0E9
:1050D000DF91CF911F91089581E00E94E4248FEF2A
:1050E000F7CFDF92EF92FF920F931F93F1E0EF2E35
:1050F000F12C012D112D04C0EE0CFF1C001F111FFF
:105100008A95D2F78091840490918504A0918604B9
:10511000B09187048E219F21A023B1230097A10580
:10512000B10511F481E041C00E94C922E1E6FBE033
:10513000DD2423E080818130B1F482859385A485CC
:10514000B5858E219F21A023B1230097A105B1052C
:1051500051F02283178616861082E286F386048732
:105160001587DD24D3948081823099F482859385DC
:10517000A485B5858E159F05A007B10751F422833C
:105180001786168610821286138614861586DD24ED
:10519000D394B1968CE0EB3AF80761F60E94CB22EB
:1051A000DD2011F081E004C082E00E94E4248FEF52
:1051B0001F910F91FF90EF90DF900895EF92FF9273
:1051C0000F931F93CF93DF93C82FDD27C7FDD09593
:1051D000A1E0EA2EF12C012D112D0C2E04C0EE0CB5
:1051E000FF1C001F111F0A94D2F780918404909134
:1051F0008504A0918604B09187048E219F21A0236D
:10520000B1230097A105B10511F48FEF5CC00E9496
:10521000C922E1E6FBE0A801970120953095409571
:10522000509563E081818F3F39F186819781A08518
:10523000B1858E159F05A007B10731F4128613863C
:10524000148615861082628386819781A085B18538
:1052500082239323A423B52386839783A087B187D2
:1052600082859385A485B58582239323A423B523C2
:1052700082879387A487B587B1968CE0EB3AF807CD
:1052800089F62EEF3FEF4FEF5FEF04C0220F331F81
:10529000441F551FCA95D2F78091840490918504CC
:1052A000A0918604B091870482239323A423B5237D
:1052B0008093840490938504A0938604B09387041C
:1052C0000E94CB2281E0DF91CF911F910F91FF903F
:1052D000EF9008951F93CF93DF9326EA3CE010E010
:1052E0008217930731F01F5F2D5F3F4F1A30C1F7D0
:1052F00047C01A3011F482E044C00E94C922C12F75
:10530000DD27C7FDD095FE01EE0FFF1FEC0FFD1F3F
:10531000EA55F34F82818823B9F4E091D50CF091DE
:10532000D60C878182608783812F992787FD90958E
:10533000A92FB92F818B928BA38BB48B0E94CB2288
:1053400080E090E00E94482CFE01EE0FFF1FEC0F62
:10535000FD1FEA55F34F828181508283A091D50CC5
:10536000B091D60C81811B968C931B9781E014968B
:105370008C930E94CB2281E0DF91CF911F91089501
:1053800081E00E94E4248FEFF7CF9B01AC01E09114
:10539000D50CF091D60C85859685A785B08982239A
:1053A0009323A423B5230097A105B10529F420E098
:1053B00030E040E050E023C0218B328B438B548B94
:1053C00081E087830090C50C04C0569547953795BA
:1053D00027950A94D2F7C90181709070892B19F032
:1053E0000E94E62B04C080E090E00E94482CE091EF
:1053F000D50CF091D60C2189328943895489B901A1
:10540000CA010895E091CA0CF091CB0C80810895F7
:10541000E091CA0CF091CB0C03C00380F481E02D25
:105420003097D9F70895DF92EF92FF920F931F9371
:10543000CF93DF93D82EC091580BD091590B209762
:1054400009F49BC04091CA0C5091CB0C41155105F9
:1054500019F4A0E0B0E057C0DA01282F332727FD68
:105460003095C90165E0880F991F6A95E1F7820FB1
:10547000931F865A944FBC01665F7F4F24E0E22E53
:10548000F12CE80EF91E8C01055F1F4F8C91282F1F
:1054900030E0F90185E0EE0FFF1F8A95E1F7E20F9A
:1054A000F31FE65AF44F8481882329F09385FB018A
:1054B0008081981740F1F7018081882379F0F90104
:1054C00095E0EE0FFF1F9A95E1F7E20FF31FE65A02
:1054D000F44F9285F80180819817A8F0F90185E0D2
:1054E000EE0FFF1F8A95E1F7E20FF31FE65AF44F24
:1054F0009285FB018081981730F013960D90BC9136
:10550000A02D109719F6D882EB81FC81F093590BEE
:10551000E093580BA417B507B1F4109749F0BC837A
:10552000AB831A8219821296DC93CE93119706C030
:105530001C821B821A821982D283C183D093CB0C26
:10554000C093CA0C1AC011968D919C911297AE17F8
:10555000BF0759F09A838983BC83AB831196ED9181
:10556000FC911297D483C38304C01C821B829A834C
:1055700089831296DC93CE931197DF91CF911F917F
:105580000F91FF90EF90DF900895CF93DF93A0915C
:10559000CA0CB091CB0C109709F453C0282F3327B5
:1055A00027FD30958C9190E08217930779F413963C
:1055B000ED91FC911497F093CB0CE093CA0C1282FE
:1055C000118212C0DA0141155105D9F18C9190E098
:1055D00013964C91139714965C9114978217930726
:1055E00089F722C0FA83E983E091580BF091590BB7
:1055F000309749F4B093590BA093580B14961C9212
:105600001E9213970AC01496FC93EE931397B283DD
:10561000A183B093590BA093580BE091580BF091D4
:10562000590B128211820DC01196ED91FC911297C7
:10563000438354831396CD91DC911497209791F670
:10564000D3CFDF91CF910895E091D50CF091D60C96
:10565000808508950E94C436E091D50CF091D60C57
:1056600085818823B9F70895FF920F931F93DF93E5
:10567000CF93CDB7DEB728970FB6F894DEBF0FBE35
:10568000CDBF29833A834B835C836D837E838F8375
:1056900098870E94B6260E94C922E091D50CF0910D
:1056A000D60C81E0858381E090E090A3878F0E94F3
:1056B0008334F82E29813A814B815C816D817E8112
:1056C0008F8198850E94A22EE091D50CF091D60C86
:1056D0000F2D10E0800F911F968B858B87EF8F1514
:1056E00070F00E9419340F5F1F4F90E008171907E0
:1056F00034F48F2D8E5F80937E0A0E941D340E94A9
:10570000CB220E942A2B81E028960FB6F894DEBFA8
:105710000FBECDBFCF91DF911F910F91FF900895E4
:105720008F929F92AF92BF92CF92DF92EF92FF92B1
:105730000F931F93DF93CF93CDB7DEB760970FB66C
:10574000F894DEBF0FBECDBF29873A874B875C87B1
:105750006D877E878F87988BCE0101960E94EA2FF6
:10576000CE01099609851A852B853C854D855E8578
:105770006F85788989809A80AB80BC80CD80DE80FF
:10578000EF80F8840E946A2D882311F48FEF0BC0FC
:1057900029853A854B855C856D857E858F859889C1
:1057A0000E94342B81E060960FB6F894DEBF0FBEE6
:1057B000CDBFCF91DF911F910F91FF90EF90DF90C0
:1057C000CF90BF90AF909F908F9008951F930E94AD
:1057D000C922E091D50CF091D60C81E085838683B7
:1057E0000E948334182F883F80F40E941934212F9F
:1057F00030E02F5F3F4F90E02817390734F4812FB6
:105800008E5F80937E0A0E941D340E94CB220E94EC
:105810002A2B81E01F9108951F93DF93CF93CDB77B
:10582000DEB728970FB6F894DEBF0FBECDBF298331
:105830003A834B835C836D837E838F8398870E943A
:10584000C9220E948334182F29813A814B815C81BF
:105850006D817E818F8198850E94A22E8330910573
:1058600010F48FEF0BC0E091D50CF091D60C810FA6
:10587000911D968B858B0E94CB2281E028960FB6D6
:10588000F894DEBF0FBECDBFCF91DF911F91089579
:105890000F931F938C010E94C922E091D50CF091C7
:1058A000D60C81E08583168B058B0E948334082FEC
:1058B000883F80F40E941934202F30E02F5F3F4F43
:1058C00090E02817390734F4802F8E5F80937E0A8A
:1058D0000E941D340E94CB220E942A2B81E01F913E
:1058E0000F910895FF920F931F93CF93DF938C0135
:1058F0000E94C922E091D50CF091D60C81E08583FD
:105900000E948334F82EE091D50CF091D60CC82F6C
:10591000D0E00C0F1D1F168B058B87EF8F1568F0DD
:105920000E941934219690E0C817D90734F48F2DBE
:105930008E5F80937E0A0E941D340E94CB220E94BB
:105940002A2B81E0DF91CF911F910F91FF90089555
:105950001F93CF93DF93EC010E94B626209711F49A
:10596000C1E0D0E00E94C922E091D50CF091D60CA4
:1059700081E08583D0A3C78F0E948334182F883F8E
:1059800080F40E941934212F30E02F5F3F4F90E0C8
:105990002817390734F4812F8E5F80937E0A0E9486
:1059A0001D340E94CB220E942A2B81E0DF91CF91EF
:1059B0001F9108951F930E94B6260E94C922E0916C
:1059C000D50CF091D60C81E090E090A3878F81E018
:1059D00085830E948334182F883F80F40E941934F5
:1059E000212F30E02F5F3F4F90E02817390734F424
:1059F000812F8E5F80937E0A0E941D340E94CB22ED
:105A00000E942A2B81E01F910895E091D50CF0911E
:105A1000D60C80850E94C52AE091D50CF091D60C59
:105A200084E081870E94DA2C81E00895EF92FF9252
:105A30000F931F93CF93DF93EC0169817A814B81A0
:105A40005C818D819E810E94D336BC018F81882329
:105A500069F04B815C81CE0120E030E000E010E095
:105A6000EE24FF240E94D5221F8215C08881992729
:105A700087FD9095FC01A5E0EE0FFF1FAA95E1F7C9
:105A8000E80FF91FE65AF44F8185833011F08FEF4C
:105A90001AC0718360838881992787FD9095FC01E6
:105AA00075E0EE0FFF1F7A95E1F7E80FF91FE65A50
:105AB000F44F85899689892B29F482E08187888132
:105AC0000E94132A81E0DF91CF911F910F91FF90E7
:105AD000EF9008958F929F92AF92BF92CF92DF92F4
